S00C000042694469722E7333371E
S21400000000080020991A0000951A0000951A0000B2
S214000010B9640000951A0000951A0000951A0000B1
S214000020951A0000951A0000951A0000951A00000F
S214000030951A0000951A0000951A0000951A0000FF
S214000040951A0000951A0000951A0000951A0000EF
S214000050951A0000951A0000951A0000951A0000DF
S214000060951A0000951A0000951A0000951A0000CF
S214000070296A0000951A0000951A0000951A0000DB
S214000080951A0000951A0000951A0000951A0000AF
S214000090951A0000951A0000951A0000951A00009F
S2140000A0951A0000E5210000BD210000951A000009
S2140000B0951A000071CB0000951A000051D500007B
S2140000C009D5000005D5000041CD00004DD5000043
S2140000D00DD5000025D5000011D50000B1D50000D3
S2140000E0E9BA00004DBB000091D50000951A00004B
S2140000F0951A0000951A0000951A0000951A00003F
S214000100951A0000951A0000951A0000951A00002E
S214000110951A0000951A0000951A0000951A00001E
S214000120951A0000951A0000951A0000951A00000E
S214000130951A0000951A000009110000F910000039
S21400014010B5054C237833B9044B13B1044800E0CE
S21400015000BF0123237010BD24090020000000000A
S2140001608452010008B5034B1BB10349034800E065
S21400017000BF08BD000000002809002084520100CE
S214000180A3F5803A704700BF174B002B08BF134BF0
S2140001909D46FFF7F5FF00218B460F461348144A8D
S2140001A0121A0EF0B0F90E4B002B00D098470D4BEC
S2140001B0002B00D098470020002104000D000D48B9
S2140001C0002802D00C4800E000BF0EF051F92000D5
S2140001D0290000F08BFE0EF037F900BF0000080083
S2140001E00000000000000000000800202409002095
S2140001F058210020000000000000000008B5032081
S21400020001F066F940B9032001F062F970B90320E5
S21400021001F05EF9B8B908BD01F07AF901F079F994
S2140002201149124B186805F0C1FDECE701F070F9B2
S21400023001F06FF90E4B9A6CDB6C0E490B480068A8
S21400024005F0B4FDE3E701F063F901F062F9074B4E
S2140002501868094B1B7823B1084A094905F0A6FD22
S214000260D9E7084AF9E700BF64F1000070110020E2
S2140002700080E00F6CF100000008002060F1000034
S21400028084F100005CF1000008B5094B01221A70E9
S214000290032001F01DF900B908BD01F039F901F09D
S2140002A038F90449044B186805F080FDF4E700BFF0
S2140002B0140E002098F100007011002010B583681D
S2140002C0C26853F822301B7843B90C4B00221A70D0
S2140002D00B4C032001F0FCF828B910BD074B012297
S2140002E01A70084CF5E701F013F901F012F92246EE
S2140002F00549064B186805F059FDEEE70008002092
S2140003005CF1000060F10000B0F100007011002008
S21400031010B58AB0002001F0B5F83D4C206000F022
S2140003209DFD3C4801F04EFE3B4801F04BFE00238D
S21400033004220121084603F069FA00230422022160
S214000340012003F063FA00F001FB2068002211464A
S21400035007F086FD314B00221A60012119714FF417
S2140003607A70986019739A735A732D4B50241C60D8
S2140003701971986019739A735A730DF1140C294CFD
S2140003800FCCACE80F0023682CF8023B1B0C8CF853
S2140003900030032001F09CF8C0B9234B93E803001B
S2140003A00390ADF81010214B93E803000190ADF8D0
S2140003B00810032001F08CF898B9032001F088F8A3
S2140003C0D8B9012007F00CFD0AB010BD01F0A0F866
S2140003D001F09FF805AA1649164B186805F0E6FCCA
S2140003E0DBE701F095F801F094F801AB03AA124997
S2140003F01048006805F0DAFCDFE701F089F801F044
S21400040088F80E490B4B186805F0D0FCD9E700BFFA
S21400041040090020E0FD0000F8FD0000440900202F
S21400042054090020FCF1000010F2000018F2000051
S214000430C8F1000070110020CCF10000D8F10000D7
S214000440054B834203D0054B01221A707047044BBC
S21400045001221A70704700BFEC0B0020E80B00204A
S214000460040C002070B582B004460A46164B186885
S2140004700123214608F0AEF8062801D102B070BD6F
S2140004800446124E124D3146286805F08FFC01F0E6
S2140004903FF801F03EF80F4B009340F205430E4A3A
S2140004A00E49286805F082FC0D4A0E49286805F0BA
S2140004B07DFC062322460C49286805F077FC314669
S2140004C0286805F073FCFEE740090020F0F2000003
S2140004D07011002008F6000020F2000034F2000040
S2140004E040F200006CF2000084F2000070B5054691
S2140004F00C4616468A8889680DF0DEFFE16831B141
S2140005006288A088121A92B228440DF0D5FF356092
S2140005106088B0F5007F28BF4FF4007070BD000003
S214000520034A1378DBB203490B701070704700BFA4
S214000530AF090020AE09002000B583B00A4B0422A4
S2140005401A640A4B18680022114607F089FC00233B
S2140005500093074B01224FF47A71064807F064FCBB
S21400056003B05DF804FB00BF00D003504009002034
S21400057041040000D00B002008B50D4A1368013373
S21400058013600C4883701A0AC2701A0C02711B0E94
S21400059043710621FFF766FF074B02221A64074BDA
S2140005A0186800231A46194607F04CFC08BD00BF21
S2140005B0080C00200408002000D00350400900204A
S2140005C0074A1168074B19608378C17803EB01234B
S2140005D0017903EB0143417903EB01631360704734
S2140005E0B0090020B809002008B5024801F0EFFC69
S2140005F008BD00BFF8FD000030B587B0184B18687E
S21400060001AA022108F006F8044609E0154801F0A0
S214000610DEFC134B186801AA022107F0FBFF044614
S214000620CCB1002300936A4601A90F48FFF75EFF8E
S21400063005460B4B1868214607F0F2FF0B4B1B785C
S214000640002BE3D029460098FFF7BAFF084A136844
S21400065001331360DAE7074B04221A6407B030BD93
S21400066040090020E0FD0000C0090020000800202E
S214000670C40B002000E003502DE9F0432DED028B63
S2140006808DB09C4B19689C4B1A688B189B48006869
S2140006901B1A9B4800681B1A07EE903AF8EE677A1A
S2140006A0B3EE047A87EE878ADFED967AC7EE887A0D
S2140006B017EE907A944843688068034407EE103A31
S2140006C0B8EE477A9FED916A27EE067A07EE901A03
S2140006D0F8EE676AC7EE267A17EE909A8C494B6852
S2140006E089680B4407EE903AF8EE677A67EE867AEA
S2140006F007EE102AB8EE477AC7EE877A17EE908A8A
S214000700032000F0E5FE002840F09B80032000F068
S214000710DFFE002840F0A180032000F0D9FE00286C
S21400072040F0A780032000F0D3FE002840F0B580FC
S214000730032000F0CDFE002840F0C380754D7649BA
S214000740284603F08EFD704B1B68744A202104A8CF
S21400075007F084FA012602960024019400942346AA
S214000760052204A9284603F098FD694B1B686C4ACD
S214000770202104A807F072FA0296019400942346FA
S214000780062204A9284603F088FD48460DF092F993
S214000790CDE90001634A202104A807F05FFA02961B
S2140007A0019400942346072204A9284603F075FD09
S2140007B040460DF07FF9CDE900015B4A202104A8F0
S2140007C007F04CFA0296019400942346082204A9E6
S2140007D0284603F062FD18EE100A0DF06BF9CDE91D
S2140007E00001524A202104A807F038FA0296019424
S2140007F000942346092204A9284603F04EFD3846F5
S2140008000DF058F9CDE90001494A202104A807F067
S21400081025FA02960194009423460A2204A9284643
S21400082003F03BFD03F0F2FA324B1A68334B1A60C2
S214000830314B1A68324B1A600DB0BDEC028BBDE826
S214000840F08300F065FE00F064FE2F4B1A6839490D
S214000850394B186805F0AAFA58E700F059FE00F080
S21400086058FE2B4B1A683549334B186805F09EFA2C
S21400087052E700F04DFE00F04CFE48460DF01AF927
S214000880214B9A6801925B68009302460B462C49FE
S2140008902948006805F08AFA44E700F039FE00F0BF
S2140008A038FE40460DF006F9194B9A6801925B68CF
S2140008B0009302460B4623491F48006805F076FA67
S2140008C036E700F025FE00F024FE18EE100A0DF0C4
S2140008D0F1F804460D46184B1E6838460DF0EAF847
S2140008E0CDE9000122462B461749304605F05EFA50
S2140008F024E700BF080C0020B00900200C0C0020E4
S214000900B40900200044C547180E00200000C84265
S214000910C40B0020800900208801010058F4000064
S21400092070F4000088F40000A0F4000074F30000E7
S214000930FCF3000010F400007011002020F400000A
S21400094098F30000D0F2000030F40000F0B585B057
S214000950002003F02DFA08B105B0F0BD334803F0CF
S214000960EFFA0028F8D1314D6FF07F436B6000241A
S214000970AC60284603F018FB2D4E3146284603F09F
S21400098070FC2C4F02940194009401231A463946B9
S214000990284603F082FC029401940094012302226C
S2140009A02549284603F079FC02940194009401231B
S2140009B003222249284603F070FC02940194009416
S2140009C0012304223946284603F067FC1C492846C2
S2140009D003F047FC0294019400940123062219496F
S2140009E0284603F05AFC029401940094012307223F
S2140009F01549284603F051FC029401940094012303
S214000A0008221249284603F048FC3146284603F0DF
S214000A1028FC02940194009401230C220C492846D9
S214000A2003F03BFC03F0F2F996E700BF80090020D4
S214000A3058FE0000B8F40000CCF40000DCF400001F
S214000A4088010100F0F40000FCF400000CF5000042
S214000A501CF5000070B584B09F4B1B78002B43D06C
S214000A609D4B00221A709D4B1B78CBB10520FFF7DB
S214000A7057FD9B4B1B78DBB20E2B00F20A81DFE89A
S214000A8013F07F008C00BE0082008200E400EA00C3
S214000A90EE00F2008200F800FE000801020182006B
S214000AA001248E4B1C708F4E8F49304603F0D9FBC5
S214000AB0029400250195009523460C228B4930466A
S214000AC003F0EBFB03F0A2F9894B1A68894B1A6016
S214000AD0894B1A68894B1A600095894B22468949CA
S214000AE0894807F0A1F9C1E7884B1B78CBB9884B3A
S214000AF01B7823BB874B1B78002B2BD1864B1B7890
S214000B00002B32D1854B1B78002BB2D0834B0022B2
S214000B101A70834A5368013353600E20FFF700FDB6
S214000B20A7E77A4B00221A707E4B02221A647E4A8E
S214000B301368013313600A20FFF7F2FC99E7744B41
S214000B4000221A70794A5368013353600620FFF773
S214000B50E7FC8EE76F4B00221A70744A93680133E5
S214000B6093600820FFF7DCFC83E76B4B00221A70CB
S214000B706D4A5368013353600B20FFF7D1FC78E7CA
S214000B800420FFF7CDFC554B1B7823B1684B1B7830
S214000B90002B40F0E78004B070BD0D20FFF7C0FCCE
S214000BA0032000F095FC00BB624801F006FA4D4EAB
S214000BB04D49304603F055FB01240294002501956B
S214000BC0009523460C224949304603F066FB03F0A5
S214000BD01DF900954A4B22464A494B4807F024F92E
S214000BE0434B1A68434B1A60CDE700F091FC00F0C7
S214000BF090FC5149514B186805F0D8F8D4E703200B
S214000C00FFF78EFC032000F063FCA0B9494801F012
S214000C10D9F9344C3449204603F023FB01230293D0
S214000C200022019200920C224549204603F035FB33
S214000C3003F0ECF8A7E700F06BFC00F06AFC414913
S214000C403E4B186805F0B2F8E0E70D20FFF768FCA9
S214000C50FFF7D2FC97E70820FFF762FC93E708202F
S214000C60FFF75EFC8FE70420FFF75AFCFFF764FCF3
S214000C7089E70820FFF754FCFFF7B6FC83E70D2052
S214000C80FFF74EFC7FE70920FFF74AFCFFF774FCEE
S214000C9079E72D4D294C2946206805F087F800F0A5
S214000CA037FC00F036FC294B00934FF42F73284A8C
S214000CB02849206805F07AF8274A2849206805F070
S214000CC075F8074B1A782649206805F06FF829460C
S214000CD0206805F06BF8FEE7AC090020C00B00208A
S214000CE0AF0900208009002058FE000088F30000AD
S214000CF0080C00200C0C0020B0090020B4090020CD
S214000D0041040000002D3101EC0B0020AD0900204D
S214000D10BC090020E80B0020100C0020640900200D
S214000D206809002000E00350180E0020C40B0020C5
S214000D30040C0020F8FD00002CF5000070110020C7
S214000D401CF5000038F50000F0F20000F4F5000095
S214000D5020F2000034F2000044F500006CF20000BF
S214000D604CF500000024064B1C70FFF785FC009431
S214000D70044B01220449054807F056F80BE700BF6C
S214000D80040C002041040000002D3101EC0B002073
S214000D9070B5064614461D461C4BC3E900451C4B61
S214000DA0134205D002F00803C3B91A4B01221A7089
S214000DB004F4804313B1184B01221A7004F0AA43BE
S214000DC005F02202134305D004F0807363B1134B81
S214000DD001221A7015F4007F0AD170BD07F01EFCC0
S214000DE00F4B01221A70E3E70E4B01221A70F1E74F
S214000DF000221146304607F0A5FB0B4B18701B78F7
S214000E00002BEAD0094B01221A70E6E77809002089
S214000E10088D0100BC090020E80B0020AD09002069
S214000E20AC090020100C0020740900206409002082
S214000E3008B500F082FF012800D008BD064B1A78DE
S214000E4082F001021A701B7813B1FFF769FBF4E712
S214000E500220FFF765FBF0E7140E002070B582B0A5
S214000E60184B18684FF400730022174907F0B4FBBC
S214000E70B0F5007F01D102B070BD0446134E144D8C
S214000E803146286804F092FF00F042FB00F041FB78
S214000E90104B009340F249330F4A1049286804F07B
S214000EA085FF0F4A0F49286804F080FF4FF400734F
S214000EB022460D49286804F079FF3146286804F078
S214000EC075FFFEE740090020140C0020F0F2000039
S214000ED070110020E4F5000020F2000034F200005B
S214000EE060F500006CF200008CF5000008B505F017
S214000EF0BEFDFFF70DFA05F0C6FDFFF7ABFDFAE7FE
S214000F00704708B500F02FFB08BD000030B585B06F
S214000F10094C2268094B1A60094D0A4B2B600A4B94
S214000F20019304F0E7FE02902B68039301A9206862
S214000F3003F0D8FC05B030BD24080020EC1B0020D0
S214000F40E81B00201808002010FB000038B504F04D
S214000F50D1FE0446064D2B68D3F8B00204F0BEFE60
S214000F60286803F0D3FC204604F0B8FE38BD00BF66
S214000F702408002008B50321802001F007FF032184
S214000F804FF4806001F002FF03214FF4906001F0FF
S214000F90FDFE08214FF4C06001F0F8FE08214FF472
S214000FA0F06001F0F3FE08213E2001F0EFFE08217C
S214000FB02D2001F0EBFE002008BD000008B5154B03
S214000FC01B68C3F30743012B10D004F06BFE00F040
S214000FD0E8FA04F0E1FD04F005FE04F049FEFFF730
S214000FE0C9FF04F0EBFD00F0D0FA08BD0A4B5A6EBC
S214000FF003F580534FF48021596603F5104304210E
S214001000196212F4802FE0D1A3F500434FF480223A
S2140010105A66DAE70080E00F0080005008B500F05E
S21400102041FF01F075F800F03FFA00F045FA00F0D5
S21400103021FB08BD08B503F073FA03F05DFB03F06F
S2140010407DFB00F02DFA08BD08B500F063FA08BD78
S214001050704708B5FFF77AFF08BD7047704708B5B8
S21400106000F046F808BD08B500F079FA05F0F8FA81
S21400107005F026F805F0A6F9FFF7F1FFFFF746FFA3
S21400108008BD000010B59AB0164C0DF1480CA646E7
S214001090BEE80F00ACE80F009EE80F008CE80F00DB
S2140010A00DF11C0C04F1200EBEE80F00ACE80F009A
S2140010B0BEE80F00ACE80F009EE807008CE80700CB
S2140010C00DF10C0C04F14C030FCB8CE80F00064B13
S2140010D0009307AB12AA6146044804F0CBFE1AB090
S2140010E010BD00BF28FB0000E010002058110020B3
S2140010F008B5FFF7C7FF08BD08B5024B186804F02F
S2140011009FFF08BD5811002008B5024B186804F070
S21400111097FF08BD58110020F0B583B005460E466F
S214001120104F114C3946206804F040FE00F0F0F9EC
S21400113000F0EFF90D4B009339230D4A0D49206856
S21400114004F034FE0C4A0D49206804F02FFE3346A6
S2140011502A460B49206804F029FE3946206804F028
S21400116025FEFEE7F0F2000070110020D0FB000024
S21400117084FB000034F20000A8FB00006CF20000C4
S214001180ACFB000008B5FFF7C7FF08BD704708B501
S214001190FFF7FCFF08BD704738B504460D4603F060
S2140011A0C9F929462046FFF7F6FF38BD08B5FFF710
S2140011B0EFFD08BD0000000070B58AB0002306935E
S2140011C00793089309939A4B06939A4906A806F044
S2140011D0E1FD994B186040B30023059305A907F07D
S2140011E0F7F90546002840D0944E954C31462068C5
S2140011F004F0DCFD00F08CF900F08BF9914B0093C5
S2140012007323914A9149206804F0D0FD904A914991
S214001210206804F0CBFD2A468F49206804F0C6FDFE
S2140012203146206804F0C2FDFEE7844D844C294612
S214001230206804F0BBFD00F06BF900F06AF9814B02
S21400124000936823804A8149206804F0AFFD834AF2
S2140012508049206804F0AAFD8149206804F0A6FDB4
S2140012602946206804F0A2FDFEE7734C7D4A7E4BBB
S2140012701968206807F092F80021206803F024FA25
S214001280064600B36D4D6E4C2946206804F08EFD70
S21400129000F03EF900F03DF96A4B009388236A4A55
S2140012A06A49206804F082FD694A6A49206804F0A9
S2140012B07DFD32466D49206804F078FD2946206899
S2140012C004F074FDFEE74FF001115B4B186807F061
S2140012D078F9054600B3594E594C3146206804F05B
S2140012E065FD00F015F900F014F9564B00939423B1
S2140012F0554A5649206804F059FD554A5549206814
S21400130004F054FD2A465A49206804F04FFD314641
S214001310206804F04BFDFEE743A3D3E90023CDE9A4
S21400132000234FF0FF324FF0FF334349086807F0C1
S21400133075F8064600B3414D414C2946206804F036
S21400134035FD00F0E5F800F0E4F83E4B00939D23F1
S2140013503D4A3E49206804F029FD3D4A3D49206843
S21400136004F024FD32464349206804F01FFD294658
S214001370206804F01BFDFEE73F4B1B88ADF81030DD
S214001380ADF80C3004A92C4B186807F02FF8064669
S21400139000B32A4D2A4C2946206804F007FD00F0C9
S2140013A0B7F800F0B6F8274B0093AD23264A274936
S2140013B0206804F0FBFC264A2649206804F0F6FC68
S2140013C032462E49206804F0F1FC2946206804F0D5
S2140013D0EDFCFEE703A9184B186807F01DF8064653
S2140013E008B90AB070BD154D154C2946206804F0A2
S2140013F0DDFC00F08DF800F08CF8124B0093B22361
S214001400114A1249206804F0D1FC114A114920689B
S21400141004F0CCFC32461A49206804F0C7FC294682
S214001420206804F0C3FCFEE718D50555E20300006B
S214001430AD1100008F11000028080020F0F2000017
S21400144070110020B0FD0000F0FB000034F2000038
S21400145060FC00006CF2000094FC000010FC000031
S21400146038FC00009911000010080020C0FC0000A5
S214001470F8FC000020FD0000ACFD00004CFD000064
S2140014807CFD000082B0054B019302AB03EB8000AD
S21400149050F8043C186802B0704700BF28080020C7
S2140014A008B5FFF789FE08BD08B5024800F03EFC07
S2140014B008BD00BFC8FD000008B5034800F078FD71
S2140014C0024800F075FD08BDE0FD0000F8FD0000D4
S2140014D003460B4A107828B10A4A12789A4202D27A
S2140014E0002000E00120084A12783AB1074A127834
S2140014F042FA03F313F0010F00D10020704700BF3B
S2140015003B0800203C080020741100203D08002005
S2140015107047704708B5084B01221A70074B002227
S2140015201A70074B04221A70064B1F221A7004F01A
S214001530E1FB054B186008BD3B0800207411002035
S2140015403C0800203D0800207011002008B501234B
S21400155004221146184602F059F9002008BD08B5C5
S214001560FFF7F4FF08BD08B500230422114601204A
S21400157002F04CF9002008BD08B50123042207211B
S214001580022002F043F9002008BD08B501213A20E8
S21400159001F02CF8FFF7B5FCFFF7EEFF00F0F0F9CE
S2140015A008BD08B501213A2001F020F808BD012940
S2140015B007D0022320F07F4040EAC36040EA8270F2
S2140015C070470323F6E72DE9F04107460E4601F182
S2140015D009054FF0000844460EE0F3B20433D9B2D2
S2140015E006E008F1010341465FFA83F800E05B215C
S2140015F0082000F0B5FC0134AC4224D2002CF6D012
S214001600012CEAD0022C12D0032C12D0042C12D0BB
S214001610052CE6D0B31DA3420FD0F31DA3420ED077
S21400162006F10803A3420CD0A31FF95CE0E7D12122
S214001630DEE78021DCE70021DAE75A21D8E75A21E5
S214001640D6E75D21D4E70020BDE8F08100B583B081
S21400165002218DF8001000220548FFF7A8FF019030
S21400166008216846FFF7AFFF03B05DF804FB00BF34
S214001670006A180008B5082000F066FCFFF7E6FFD1
S21400168008BD00002DE9F04389B004468846174699
S21400169001AD294E0FCE0FC596E8070085E8070076
S2140016A0D4F80090254B994543D003F580439945DF
S2140016B03DD04FF0FF356D0105F1A04505F57035BD
S2140016C0D5F81C6606F0040601213A2000F08EFFCD
S2140016D00121606800F08AFF00230422617B207BE2
S2140016E002F094F800230422617A207A02F08EF841
S2140016F0CDF80C80ADF8147001238DF8123001A9D6
S214001700484602F00BFA237A627A43EA0243C5F8A7
S2140017103436237B627B43EA0243C5F8303646F014
S2140017201806C5F81C66002009B0BDE8F083012540
S214001730C1E70025BFE700BF10FE000000C005504F
S214001740F8B50E4615460768002407E0315D91FAA5
S214001750A1F1090E384602F042FA0134AC42F5D344
S2140017600020F8BD0268936913F0200FFBD0704785
S21400177010B5046802E0204602F01EFAA36913F0D2
S214001780800FF8D110BD0000014B01221A6170478E
S21400179000F0035010B582B081B1044604F0E6FFB5
S2140017A0217B49000123019300230093054AB0FBE7
S2140017B0F1F1054804F0C0FF02B010BD024804F085
S2140017C08BFFF9E78917000078110020F0B583B089
S2140017D005460F4C04F5805340261E67407B05F0F7
S2140017E05DF90423ADF806300A4F02220DF106011A
S2140017F03846FFF7A5FF3846FFF7B4FFA87B05F08D
S2140018004DF904F500542667002003B0F0BD00BF74
S21400181000C003504008002038B5044601213A2095
S21400182000F0E4FE0022A1680F48FFF72BFF00231C
S21400183004220621022001F0E9FF002304221946B3
S214001840184601F0E3FF094D94E80F0085E80F0005
S2140018500121074B19702046FFF79CFF2046FFF733
S214001860B5FF002038BD00BF4008002098110020BA
S214001870941100202DE9F04383B081460D461F46A3
S2140018800688037903FB06F6F61002F10108254BDD
S21400189040221A67407B05F001F91FFA88F84FEAE4
S2140018A008239BB243F00103ADF8063002220DF187
S2140018B006011D48FFF744FF00240AE04FF6FF73B9
S2140018C0ADF8063002220DF106011748FFF738FF83
S2140018D00134BC4214D2324629461348FFF730FF83
S2140018E035447B1EA342E9D008EB040292B20132D3
S2140018F092B2120292B242F0FF02ADF80620E1E781
S214001900094C2046FFF72EFF99F80E0005F0C6F8A2
S214001910064B40221A672046FFF72AFF002003B036
S214001920BDE8F08300D003504008002000E00350DC
S214001930034B1B780BB1034870470020704700BF6D
S214001940941100209811002000B585B0054BEC4698
S2140019500FCB8CE80F006046FFF75EFF05B05DF822
S21400196004FB00BF2CFE0000014B10221A617047DA
S21400197000E00350014B10221A61704700D003505C
S214001980F0B589B001AC3F4D0FCD0FC495E8070008
S21400199084E8070001213A2000F028FE01212820D3
S2140019A000F024FE01248DF81240374B0393374F86
S2140019B001A9384602F0B2F823460422002102208C
S2140019C001F024FF002322462146022001F01EFFDC
S2140019D0234604220221084601F018FF234604226B
S2140019E01146002001F012FF294D4FF00213C5F8F2
S2140019F03036A3F58033C5F82C360226C5F8346693
S214001A001C23C5F81C364FF4487005F047F8FFF75E
S214001A10ABFF142005F042F8FFF7ACFF232005F0DB
S214001A203DF8FFF7A1FFB921384602F0CCF8FFF7E2
S214001A30A1FF00231A461946304601F0E7FE0023B0
S214001A401A462146304601F0E1FE23460022314682
S214001A50304601F0DBFE234600220421104601F04A
S214001A60D5FE384602F02AF80021C5F83016C5F82B
S214001A702C16C5F83416C5F81C16282000F0B6FD3E
S214001A8009B0F0BD3CFE000000127A0000C0055010
S214001A9000C00350FEE7000008B500F02DF8124A1B
S214001AA00AE01068516850F8230041F8230001331B
S214001AB091688B42F5D30C320C4B9A4201D200232C
S214001AC0F6E70B4A08E01168002041F823000133CE
S214001AD051688B42F7D30832064B9A4201D2002354
S214001AE0F6E7FEF751FB00BF8C520100985201004A
S214001AF0985201009852010010B4154B154A9A608E
S214001B00D3F8882042F47002C3F88820124A4FF4B3
S214001B100041916601F1884101F500524FF0FF3017
S214001B2010664FF6DF7050660220C3F8D000BFF391
S214001B304F8FBFF36F8F09480824C0F880414FF4D9
S214001B404033D36004600B615DF8044B704700BF00
S214001B5000ED00E0000000000090005000E100E012
S214001B60014B1868704700BF5408002008B5094BA1
S214001B701B6F03F00703022B04D0032B05D0012BA9
S214001B8006D0FEE7FFF7ECFF03E0034B186800E023
S214001B90024808BD0080005058080020002D310182
S214001BA008B5FFF7E3FF054B1B6FC3F303330133A1
S214001BB0B0FBF3F0024B186008BD00BF0080005079
S214001BC0500800200048704700B4C404014B186851
S214001BD0704700BF5808002008B5064B1860064B33
S214001BE01B6F03F00703032B00D008BDFFF7D8FFD9
S214001BF0FBE700BF58080020008000500020704718
S214001C0000487047002D31014FF4004070474FF4F4
S214001C107A707047014B1868704700BF5C08002058
S214001C2000230360704703680B6001607047D0B103
S214001C308446C2B1B9B10020137883B100B501F172
S214001C40FF3E864506D90CF8013B01320130137879
S214001C50002BF4D100238CF800305DF804FB002341
S214001C608CF8003070477047034640B1002001E012
S214001C70013301301A781AB18842F9D37047002030
S214001C80704708B54FF0FF31FFF7EEFF08BD80B193
S214001C9070B50C461546064622B119B1FFF7F1FF9E
S214001CA0844200D870BD2A46211A3044FFF7BFFF91
S214001CB0F8E77047F0B18446F1B110B409E004F1DA
S214001CC020030FE02030181A18D1BCB10CF1010C1B
S214001CD001319CF800400B4BE35C03F00303012B3F
S214001CE0EDD023460878074A825C02F00302012AF8
S214001CF0E9D1E7E701207047012070475DF8044B03
S214001D00704700BF1D5101000346064A1068034491
S214001D10054A934202D8034A136070474FF0FF30DB
S214001D20704700BF600800200080002008B54368A8
S214001D300BB1984708BD2220FCE708B543690BB1F4
S214001D40984708BDFF20FCE708B50B681A78022AFA
S214001D5000D108BD08461A7993F805C002EB420286
S214001D60120106498A5822FA0CF212F0010F0CBF33
S214001D70012200221A70FFF75BF8EAE714C003504E
S214001D8030B583B00546046801213A2000F02EFCE9
S214001D90002301226179207901F038FD23796179E9
S214001DA003EB43031B010F4AD358CB4013F0010F3C
S214001DB00CBF012300232370A379022B02D000203E
S214001DC003B030BD00F0A4F92A460749607900F058
S214001DD0C7F902466179207901230193009301F047
S214001DE081FCECE714C00350491D00000368187816
S214001DF07047000002681378022B11D013795079CF
S214001E0003EB43031B011349CB58C34003F0010007
S214001E1003469179012904D011B980F001001070B1
S214001E2070475188490089B20B4343F47F4343F01F
S214001E30C0034FF6E0718B4205D04FF6DF718B4240
S214001E4004D05380704701211170F6E7002111700D
S214001E50F7E700BF14C0035008B503681A78022AD3
S214001E6000D008BD00225A80FFF78AFFF9E710B5B8
S214001E7082B004682378022B04D0A379022B03D007
S214001E800223237002B010BD0021607900F058F9DB
S214001E90617920790023019300930A4601F022FC21
S214001EA0EEE7000008B501213A2000F09FFB012371
S214001EB004220321002001F0A9FC002001F010FC00
S214001EC01A4B0122C3F844244FF4607000F0AEFBB6
S214001ED0174BD3F8F02042F00102C3F8F020D3F8F5
S214001EE0FC2042F08072C3F8FC20A3F55D43114A43
S214001EF01A6000F5D52000F2FC40C0080E4BA3FB8C
S214001F000030800A01380D4B18610222C3F8F02019
S214001F104FF48072C3F804234FF06043084AC3F8B6
S214001F20B02F084AC3F8802E002008BD00D003500A
S214001F3000ED00E0FF03004017916502000004E09A
S214001F4055CEACC5090001004FF06041D1F8003E07
S214001F50012282401343C1F8003E00207047000073
S214001F604FF06043D3F8803E13F0010F01D11120EB
S214001F7070470E4AD2F8FC3043F08073C2F8FC304B
S214001F804FF06043D3F8002E4FF0010C0CFA00FC23
S214001F9042EA0C02C3F8002E53F82030002BE8D09B
S214001FA04FF0604303F820100020704700ED00E07B
S214001FB008B543680068984708BD08B58368006898
S214001FC0984708BD08B5C3680068984708BD08B5B7
S214001FD003690068984708BD10B5044601213A20F9
S214001FE000F004FBA378B3FA83F35B09042261785C
S214001FF0207801F00BFC002010BD837873B90378BD
S214002000417801228A4003EB43031B0103F1A043FE
S21400201003F5703342F210015A5070470378417846
S21400202001228A4003EB43031B0103F1A04303F59F
S214002030703341F210015A507047837873B90378B1
S214002040417801228A4003EB43031B0103F1A043BE
S21400205003F5703341F210015A5070470378417807
S21400206001228A4003EB43031B0103F1A04303F55F
S214002070703342F210015A507047037841780122BB
S2140020808A4003EB43031B0103F1A04303F57033BF
S21400209043F210015A50704710B401460278407857
S2140020A002EB42021201064CA358C34003F00100A3
S2140020B08B780BB980F001005DF8044B704700BFC9
S2140020C010C0035010B5044602E0202007E09047F9
S2140020D0DCB194FAA4F00028F7D0B0FA80F001231F
S2140020E0834024EA0304094B03EB00135A68002AD2
S2140020F0EED0064B03EB00131B7B002BE7D0034B05
S21400210003EB001399689047E2E710BDA811002082
S21400211008B5192001F04CF828B1084B4FF00072B2
S214002120C3F880211A601A2001F042F828B1034B48
S2140021304FF08062C3F880211A6008BD00E100E01D
S21400214038B505460C4601F02AF8044B03EB051398
S2140021505C6000221A7301F028F838BDA811002030
S214002160F8B505460F46164601F019F805F0FC0CC2
S214002170104BD3F824140023032B0CD8EC1804F0CF
S214002180030444EA0C0421FA04F212F0010F03D00F
S2140021900133DBB2F0E7FF24FF2C06D0064B03EB3F
S2140021A004135F609E6001221A7300F0FEFF204653
S2140021B0F8BD00BF00C00350A811002008B5084BAA
S2140021C0D3F82404D3F82024104000F0553020F033
S2140021D0502003F50053C3F82004FFF773FF08BD33
S2140021E000C0035008B5084BD3F82404D3F82024C5
S2140021F0104000F0AA3020F0A02003F50053C3F8EA
S2140022002004FFF75FFF08BD00C00350024B4FF4E9
S21400221080321A67704700BF0090005038B50546F8
S2140022200C46FFF7A3FC05B128600CB10D23236014
S21400223038BD000038B505460C460F4BD3F82031A4
S21400224003F00303022B0ED0032B10D0012B06D075
S2140022500023184605B1286004B1236038BDFFF797
S2140022607FFC0523F6E7FFF7B1FC0323F2E7FFF751
S214002270C7FC0223EEE700BF0080005070B582B0B6
S21400228006460D46002301930D4BD3F8804104F01B
S2140022900304012C09D0022C0DD000240EB1019BA2
S2140022A0336005B12C6002B070BD002101A8FFF7B5
S2140022B0C1FF0F24F2E7FFF7A3FC0190EEE700BF93
S2140022C00080005038B505460C46164BD3F824312E
S2140022D003F00703013B052B20D8DFE803F0030FCC
S2140022E0171B0B13FFF73CFC052305B1286004B150
S2140022F0236038BDFFF734FC0623F6E7FFF766FCDD
S2140023000323F2E7FFF762FC0423EEE7FFF778FC0F
S2140023100223EAE7FFF772FC0723E6E700231846E6
S214002320E3E700BF0080005038B505460C46104B6A
S214002330D3F8000100F00300032815D8DFE800F00A
S21400234002080C10012305B1286004B1236038BDD3
S214002350FFF73CFC0323F6E7FFF75CFC0823F2E7F5
S214002360FFF74CFC0723EEE700231846EBE700BF19
S2140023700080005038B505460C460F4BD3F8403168
S21400238003F00303022B0ED0032B10D0012B06D034
S2140023900023184605B1286004B1236038BDFFF756
S2140023A033FC0923F6E7FFF735FC0823F2E7FFF7CF
S2140023B02EFC0B23EEE700BF0080005008B50B4B49
S2140023C0D3F8203203F00303012B08D0022B09D0E8
S2140023D008B10023036021B100230B6001E0FFF782
S2140023E029FF08BDFFF7C6FFFBE700BF00800050CF
S2140023F030B583B005460C46002301934FF0E0232A
S2140024001B6913F0040F0CD0FFF7CAFB01900C23D6
S21400241000930DB1019B2B600CB1009B236003B0B1
S21400242030BD694601A8FFF7A5FFF2E738B50546B7
S2140024300C46124BD3F8003203F00703013B032B84
S21400244018D8DFE803F0020A0E12FFF7DDFB0923B7
S21400245005B1286004B1236038BDFFF7DBFB082315
S214002460F6E7FFF7D4FB0B23F2E7FFF799FB800AAA
S2140024700E23EDE700231846EAE700BF0080005071
S21400248038B505460C460F4BD3F8403203F003032D
S214002490022B0ED0032B10D0012B06D0002318469B
S2140024A005B1286004B1236038BDFFF7ADFB0923F2
S2140024B0F6E7FFF7AFFB0823F2E7FFF7A8FB0B23CF
S2140024C0EEE700BF0080005038B505460C460F4BBF
S2140024D0D3F8603103F00303022B0ED0032B10D089
S2140024E0012B06D00023184605B1286004B12360EE
S2140024F038BDFFF789FB0923F6E7FFF78BFB0823B8
S214002500F2E7FFF784FB0B23EEE700BF00800050E6
S214002510B0F5207F20D00ED8B0F5007F16D020D89A
S21400252010B1B0F5C07F04D10F4B186FC0F3033065
S21400253018E0002016E0B0F5607F05D10A4BD3F80E
S2140025408000C0F301100DE000200BE0064BD3F82E
S2140025509000C0F3046005E0034B186FC0F38020C2
S21400256000E00020013070470080005038B5054676
S2140025700C46174B4FF400329A660020FFF7C8FF50
S21400258005FB00F0134BDA6902F4803241F6713134
S214002590D9639B6823F440136CB90F49884207D867
S2140025A000210B430B498B600AB10022CA6338BD79
S2140025B04FF48011F5E7002C07DD0749884201D863
S2140025C00021EEE74FF48011EBE74FF44011E8E707
S2140025D00090005000000350005A620208B5FFF752
S2140025E0F1FA0021FFF7C2FF08BD0000430907D03B
S2140025F0012B10D0022B01D0094A02E0094A00E064
S214002600002200F01F0041B102F58052012303FAB8
S21400261000F010607047044AF3E702F50052F5E751
S21400262060820050688000506480005010B582B010
S214002630002301930093B0F5807F00F2EF802028FE
S214002640C0F0E7802038E02800F2E580DFE810F0F0
S2140026502C011E012C011E0133013301330133010D
S2140026601E011E0160014F013E016A014F011E015D
S2140026701E011E01E300E300E300E300E300E300C5
S21400268046015B011E011E011E01F4006F011E01C2
S214002690E300E300E300E300E300E300E300E3001D
S2140026A0E300E300E300E300E3002C01E3002C0179
S2140026B02C012C013301E300E300E300E300E30018
S2140026C0E300E300E300E300E300E300E300E300ED
S2140026D02C012C01E300E300E300E300E300E30049
S2140026E0E300E300E300E300E300E300E300E300CD
S2140026F0E300E300E300E300E300E300E300E300BD
S214002700E300E300E300E300E300E300E300E300AC
S2140027104B01E300E300E300E300E300E300E30033
S214002720E300E300E300E300E300E300E300E3008C
S214002730E300E300E300E300E300E300E300E3007C
S214002740E300E300E300E300E300E300E300E3006C
S214002750E300E300E300E300E300E300E300E3005C
S214002760E300E300E300E300E300E300E300E3004C
S214002770E300E300E300E300E300E300E300E3003C
S214002780E300E300E300E300E300E300E300E3002C
S214002790E300E300E300E300E300E300E300E3001C
S2140027A0E300E300E300E300E300E300E300E3000C
S2140027B0E300E300E300E300E300E300E300E300FC
S2140027C0E300E300E300E300E300E300E300E300EC
S2140027D0E300E300E300E300E300E300E300E300DC
S2140027E0E300E300E300E300E300E300E300E300CC
S2140027F0E300E300E300E300E300E300E300E300BC
S214002800E300E300E300E300E300E300E300E300AB
S2140028106501002848D0019802B010BDB0F5906F51
S21400282071D00ED9B0F5D06F7CD049D9B0F5E06F35
S2140028307DD0B0F5F06FEED1002101A8FFF744FE81
S214002840E9E7B0F5407F52D00FD9B0F5607F2FD1C1
S21400285000216846FFF7E2FC009C4FF46070FFF72B
S21400286057FEB4FBF0F40194D5E7B0F5007F0AD12B
S214002870FFF77CF904464FF40070FFF749FEB4FBFF
S214002880F0F40194C7E7B0F5207F0AD1FFF788F986
S21400289004464FF42070FFF73BFEB4FBF0F40194BF
S2140028A0B9E7B0F5C07FB6D1FFF77AF90190B2E785
S2140028B0B0F5806FAFD1002101A8FFF7BBFCAAE7F7
S2140028C0B0F5B06F24D0B0F5C06F04D1002101A8D8
S2140028D0FFF750FD9FE7B0F5A06F9CD1002101A83F
S2140028E0FFF76CFD97E7FFF741F9019093E7FFF7D5
S2140028F057F904464FF42070FFF70AFEB4FBF0F4D5
S2140029006408019487E7002101A8FFF7DBFC82E753
S214002910002101A8FFF7B2FC7DE7002101A8FFF720
S21400292067FD78E7002101A8FFF780FD73E7002127
S21400293001A8FFF7A5FD6EE708B58020FFF776FE35
S214002940034B984203D8034B4FF480321A6708BDF6
S214002950005A620200A0005000B583B00023019325
S214002960B0F5807F7CD00FD9B0F5D06F7DD039D947
S214002970B0F5006F4BD04FD9B0F5086F67D101A9FD
S2140029800020FFF7D1FC62E052281ED824285ED330
S21400299024382E285BD8DFE800F05E5E5E5E5A5A6A
S2140029A0565A2F685A5A5A5A5A5A5A5A5A5A6D5A90
S2140029B05A5A5A45725A5A5A5A5A5A5A5A5A5A5A6F
S2140029C05A5A5A5A5A5A5A5A5E0080283FD12E4BA3
S2140029D01B6F03F00703013B032B38D8DFE803F037
S2140029E030272A2DB0F5A06F44D00AD9B0F5B06FC5
S2140029F029D0B0F5C06F2AD101A90020FFF7BAFC94
S214002A0025E0B0F5806F26D0B0F5906F1FD101A9F4
S214002A100020FFF757FC1AE0B0F5E06F2FD0B0F5B6
S214002A20F06F14D101A90020FFF74EFD0FE005233B
S214002A3001930CE00323019309E00723019306E0CA
S214002A400223019303E001A90020FFF717FC019879
S214002A5003B05DF804FB01A90020FFF7EBFBF6E7E7
S214002A6001A90020FFF7C4FCF1E701A90020FFF749
S214002A70DDFCECE701A90020FFF7A0FCE7E701A9D1
S214002A800020FFF7FDFCE2E70080005010B504468A
S214002A908020FFF761FF032800F09D804E4B4FF427
S214002AA000225A6603F5405345F60E02C3F880200E
S214002AB003F580520221916203F5005301229A62C7
S214002AC0464B9B6D13F4803FFAD1226863681B0562
S214002AD043EA0263227B43EA0243627B43EA023311
S214002AE0A27B43EA8213E27B13433C4A1361936959
S214002AF003F00043216943EA8163616943EA0163A5
S214002B00217E43EA0143617E43EA0123A17E0B4313
S214002B109361136A23F00D03E269002A42D111463D
S214002B200B43E17E43EA810313432C4A1362E369B5
S214002B30002B39D1936A23F0330394F8201043EA2C
S214002B40411394F8211043EA011343F00103936202
S214002B50224B9A6D224B9343FAD1204B03F58051BA
S214002B6002228A621A651D4B9B6D13F0804FFAD1C4
S214002B701A4B1A6922F47002A16842EA01521A61DD
S214002B8003F580534FF000429A6194F8223013B94F
S214002B90144B02229A6294F82330ABB9114B0122EF
S214002BA09A6211E00821BBE70C4A936A23F03303CC
S214002BB094F8201043EA411394F8221043EA4103A4
S214002BC094F823100B43936294F824301BB1034B04
S214002BD0054AC3F8802010BD0090005000C0005089
S214002BE00300014000E00050F1A7FFFF014B93F9FE
S214002BF000007047A813002010B443784F2B28BF5E
S214002C004F231A461C4B4FF48001596603F5B83320
S214002C104FF4D151596203F5805102244C6003F5FC
S214002C20005301215960154B1B6913F4803FFAD1FC
S214002C30037842EA0323114A5361416883681B0103
S214002C4043EA0123017B43EA4103417B0B43936044
S214002C50817BC37B1B0143EA4113017C43EA4103AA
S214002C60417C0B435360837C1BB113466FF4D152F7
S214002C705A625DF8044B7047009000500000025006
S214002C80014B1880704700BF6408002008B5002973
S214002C9003DD0121FFF76AFC08BD0021FFF766FC93
S214002CA0FAE70000B0F5207F48D02DD8B0F5007FB9
S214002CB039D04CD810B1B0F5C07F24D110B54C1E19
S214002CC0FFF78CFC00F048F8FFF7A0FA204B196FCE
S214002CD021F4704141EA04311967FEF761FF1D4B8C
S214002CE0D3F8843013F0100FF9D11A4BD3F88410B0
S214002CF0C1F38111C1F10201FFF7C8FF00F034F8FB
S214002D00FFF71AFE10BD7047B0F5607F0AD1013993
S214002D100F4AD2F8803023F0300343EA0111C2F89C
S214002D208010704770470139094AD2F8903023F076
S214002D30F85343EA0161C2F8901070470139044A1B
S214002D40136F23F4806343EA81211167704770474D
S214002D50008000500040005008B502214FF420705B
S214002D60FFF7A0FF08BD000008B54FF4C070FFF7DE
S214002D705DFC054B984205D902214FF42070FFF701
S214002D8091FF08BD0121F8E780F0FA0270B50C4605
S214002D90B0F5807F00F0258121D9B0F5D06F00F026
S214002DA0A38161D9B0F5006F00F0858040F28F8076
S214002DB0B0F5086F40F0FC80072900F0B2810829C2
S214002DC000F0B181032900F0AA8100219E4AD2F8C2
S214002DD0003123F003030B43C2F80031E8E0522829
S214002DE037D82428C0F0E48024382E2800F2E0806B
S214002DF0DFE810F0E100E100E100E100DE00DE00C7
S214002E00D100DE0047007A01DE00DE00DE00DE00D4
S214002E10DE00DE00DE00DE00DE00DE009B01DE00FF
S214002E20DE00DE00DE007400AD01DE00DE00DE0047
S214002E30DE00DE00DE00DE00DE00DE00DE00DE009D
S214002E40DE00DE00DE00DE00DE00DE00DE00DE008D
S214002E50E100802840F0AC808B1E052B51D8DFE8BF
S214002E6003F0948250975091B0F5A06F00F05D810A
S214002E701AD9B0F5B06F00F08E80B0F5C06F40F094
S214002E8097800A2C00F20681092C80F00781082C16
S214002E9040F0068102226C49D1F8403123F003034A
S214002EA01343C1F8403183E0B0F5806F00F08380B3
S214002EB0B0F5906F7CD1023C052C00F2FF80DFE875
S214002EC014F00101FF000701090105010301B0F537
S214002ED0E06F00F03C81B0F5F06F69D10A2C00F28B
S214002EE0E380092C80F0E480082C40F0E380022286
S214002EF05549D1F8603123F003031343C1F860311C
S214002F0056E000252E460121022000F06DF9FFF75D
S214002F1065FBFFF721FFFFF779F94B4A136F23F0A4
S214002F20070333431367FEF73BFE484BD3F8843062
S214002F3013F0100FF9D1454BD3F88410C1F381116B
S214002F40C1F10201FFF7A2FE0121002000F092F974
S214002F50FFF70AFFFFF7F0FC55BB032C28D13C4BCC
S214002F6001229A6224E03B4B4FF400225A6603F596
S214002F7040539D6AC5F3400503F5805301229A62CB
S214002F800E46C0E700250426BDE700250126BAE761
S214002F9000250226B7E7022C02D00F2C09D1012407
S214002FA0294BD3F8801121F003010C43C3F880416C
S214002FB070BD0024F4E7032C0FD0052C0FD0022C94
S214002FC009D00021204AD2F8203123F003030B4316
S214002FD0C2F82031ECE70321F4E70221F2E70121F1
S214002FE0F0E7A1F10804082CE2D801A353F824F076
S214002FF01530000015300000B12F0000153000001D
S21400300061300000B12F0000B12F0000B12F00008A
S214003010153000000C4B596E03F580534FF4803288
S2140030205A660D4A136A43F00103136211F4803F97
S21400303003D10A4B4FF480325A664FF0E0221369F0
S21400304023F004031361B3E70080005000400050F3
S21400305000E000500090005000C0075000A0005054
S214003060484B596E03F580534FF480325A66464AF1
S214003070136A23F00103136211F4803F03D1434B1C
S2140030804FF480325A664FF0E022136943F004038F
S21400309013618DE70B2C05D10322FCE60122FAE62C
S2140030A00022F8E60022F6E60B2C05D103221FE7E5
S2140030B001221DE700221BE7002219E700210AE093
S2140030C0022108E0032106E0042104E0052102E0D5
S2140030D0062100E001212B4AD2F8243123F0070311
S2140030E00B43C2F8243163E7083C062C05D8DFE81A
S2140030F004F0060C0C0804040A00002106E0022175
S21400310004E0032102E0042100E001211D4AD2F878
S214003110003223F007030B43C2F8003248E70121D0
S21400312054E6032152E6022150E60F2C0BD0102C59
S2140031300BD10221134AD2F8203223F003030B43AB
S214003140C2F8203234E70121F4E70021F2E70A2C26
S2140031500DD8092C0FD2082C0FD102220949D1F81C
S214003160403223F003031343C1F8403220E70B2C10
S21400317005D10322F2E70122F0E70022EEE7002263
S214003180ECE700BF0080005000C0075000A00050D1
S214003190EFF3108072B6704700B962B67047EFF36F
S2140031A01180302383F31188704780F311887047AD
S2140031B04209064B53F8223000F01F0023FA00F0B5
S2140031C080F0010000F00100704700BF00E100E061
S2140031D0034AD36E23F0300301790B43D36670475E
S2140031E00040005070470000F8B50446204BD3F866
S2140031F0843013F0100FF9D11D4BD3F88430C3F38D
S21400320081139C422DD0FEF7B1FC0646012C11D04E
S214003210FFF7BEFF0546164F07F500534FF0007246
S2140032205A662046FFF7DEFF621E4FF48063934027
S2140032303B6706E00121FFF729FDE9E70C4BD3F8D1
S21400324084300B4B5B6E13F0007F05D1084BD3F830
S214003250843013F0200FF1D02846FFF79DFF022C94
S21400326000D0F8BD00213046FFF710FDF9E700BF9B
S2140032700040005010B50C46034650B1094A12787B
S21400328012B1094A934208D921460220FFF7ACFF43
S21400329010BDFEF76BFC0346F0E721460120FFF762
S2140032A0A3FFF5E7AC130020005A620208B51D4BD9
S2140032B04FF000425A6603F50B2303F580520121B6
S2140032C051605A6C0A404AF6CD311964A8B99B6819
S2140032D013F0010F07D0144B01219960134BDB6AE2
S2140032E013F0010FFAD0104B0121596012B10F4BA9
S2140032F00F4A1A6405F0A1F808BD0C4BDB6A13F000
S214003300080FFAD1094B03F500512020486203F557
S214003310805301219960054B5B6A13F0200FFAD0A9
S214003320E4E700BF009000500060095000400950DC
S2140033303254FFFF10B51B4B4FF000425A661A4A34
S21400334002F5805301215960546C0C404AF6CD3387
S214003350136443788B400B431449CB63936823F084
S2140033607403827843EA0213C278C2B1042213437C
S2140033700D4A93600179837943EA01231361417909
S214003380C37943EA012353610078FFF78FFF14B136
S214003390054B074A1A6405F050F8012010BD0022BC
S2140033A0E5E700BF00900050004009500040005084
S2140033B03254FFFF034B984201D00020704738205C
S2140033C0704700BF0000035A436813F0010F19D07E
S2140033D00A230363C36C13F0500FFBD1036C13F086
S2140033E0030FFBD1836A8362C36C13F0010FFBD11A
S2140033F000E0436B036C13F0800FFAD100F5005326
S21400340001225A600023C360836041F20202026117
S214003410C3614361836103624362C362836400F5F0
S2140034200052024951648362704700BF7F370C0127
S2140034300A46F1B100F580530121596002F00F01F0
S214003440C36CC3F30A03002BFAD10163C36C13F0F9
S2140034507803FBD112F0010F00D0012312F0040F05
S21400346001D043F00203026C02F003029A42FAD142
S2140034707047436813F0010FFAD00A230363C36C46
S21400348013F0500FFBD1036C13F0030FFBD1836ACC
S2140034908362C36C13F0010FFBD100E0436B036C37
S2140034A013F0800FFAD100F50050012343607047F7
S2140034B0036C13F0800FFBD0406BC0B27047036CF8
S2140034C013F0400FFBD0C1637047000038B50446C8
S2140034D015460846F1B16368A36803F0E003402B85
S2140034E023D01DD9602B24D0802B12D1012340017C
S2140034F005FB03F3B0FBF3F020380F4B03EAC000E4
S214003500E36C13F0010FFBD1A062E36C13F0010F24
S214003510FBD138BD2046FFF74DFFFFF787F8DAE707
S2140035202BB1202BF5D10823E1E70623DFE7102394
S214003530DDE70423DBE700BFF8FF7F0070B5044635
S2140035400D461646436823B1E36CC3F30A03002B0B
S214003550FAD12046FFF738FF236923F44C5323F0B3
S21400356003036A7B1343EA8913432A8A13432361BE
S214003570A36823F0804323F0E2032A7B13432A7ECA
S21400358013436A691343A360AB681BB9A36843F08F
S2140035900043A360EA69002A5ED0A368127A43EA71
S2140035A08253A360A368EA69927A43EA4243A3601F
S2140035B0A368EA69928802F4C0421343A360A36832
S2140035C0EA69527843EA8203A360A368EA69527BF9
S2140035D043EAC203A360A368EA69927B43EA021344
S2140035E0A360A368EA69927843EA8223A360EA6943
S2140035F09179D3795B0243EA8123E360EB691B7818
S214003600012B01D0032B03D1E36843F00403E360EE
S214003610EB691B78023BDBB2012B35D9274B012225
S214003620C3F8C020EB695A7A04F580531A62EB6936
S2140036305B7A1BB1E36843F40063E360EB69DB7A13
S21400364053B1E36843F40043E360EB691B7B03F08C
S2140036500F031B4AC2F8803036B196F82030C3B14B
S21400366004F5805301229A6105212046FFF7E0FE0B
S214003670AA68EAB929782046FFF7DAFE236CDB430E
S21400368013F4405FFAD170BD0E4B0122C3F8C02080
S214003690C8E7636923F0090396F82220134396F8D7
S2140036A02120134343F0010304F580525361DBE706
S2140036B069682046FFF70AFFDCE700BF00E4035016
S2140036C00090035000D4035008B500231A46FFF7B5
S2140036D035FF08BD08B500231A46FFF72FFF08BDC3
S2140036E0704700002DE9F84F0C4615461E469DF81B
S2140036F028809DF82C70072A44D84FEA82090323B5
S21400370003FA09FA00FA09F9FFF742FD384AD2F837
S214003710001489EA010303EA0A034B40C2F80034A6
S214003720FFF73AFD4FF0000A072D43D8A9004FF0E7
S214003730030909FA01F904F003048C40FFF728FD99
S2140037402B4BD3F80824544004EA09045440C3F829
S2140037500844FFF721FD002E44D0264A0123AB4043
S2140037601360B8F1000F3FD0234A1360012202FA1B
S21400377005F5224AC2F82054C7B3A2F6DC3213601D
S214003780BDE8F88FA2F1080A4FEA8A09032303FA74
S21400379009FB00FA09F9FFF7FBFC154AD2F80414F6
S2140037A089EA010303EA0B034B40C2F80434FFF72F
S2140037B0F3FCB9E74FEA8A0A4FF0030909FA0AF957
S2140037C004F0030404FA0AF4FFF7E2FC084BD3F80B
S2140037D00C24544004EA09045440C3F80C44FFF790
S2140037E0DBFCB8E7064AB9E7064ABEE7064AC6E77C
S2140037F000C0035010D4035014D4035000E003500C
S21400380010E4035014E4035024E403502DE9F04779
S21400381004460E461F46904662B1D3B301228A4044
S21400382000EB40031B0103F1A04303F5703341F2A4
S21400383010015A50072E39D804EB44031B01DFF859
S214003840C4909944B3004FF00F0A0AFA03FA08FA34
S21400385003F5FFF79DFCD9F8002085EA020303EA8A
S2140038600A035340C9F80030FFF796FCB8F1000F82
S2140038700DD1C7B3012101FA06F604EB4404240176
S21400388004F1A04404F5703441F21003E650BDE89C
S214003890F08701228A4000EB40031B0103F1A0439E
S2140038A003F5703342F210015A50C3E704EB4403A9
S2140038B01B01DFF854909944A6F1080292004FF0DD
S2140038C00F0A0AFA02FA08FA02F5FFF761FCD9F8BD
S2140038D0003085EA030202EA0A025A40C9F80020CC
S2140038E0FFF75AFCC2E7012101FA06F604EB44048E
S2140038F0240104F1A04404F5703442F21003E650AB
S214003900C5E700BF04C003500CC003500B784A78CC
S21400391043EA8203CA7843EA42130A7943EA021367
S21400392000EB4002920002F1B04213630B78012BC9
S21400393000D070478A78024B43F82020F9E700BF92
S214003940E88003504FF0B0435B680BB9002837D0CF
S2140039504FF0B0435B6843B14FF0B0435B6823B1B0
S2140039604FF0B0439B6A002BF6D180B1154B012275
S2140039705A604FF0B0435B6823B14FF0B0439B6A88
S214003980002BF6D14FF0B0430122DA6070474FF0BB
S214003990B0435B6823B14FF0B0439B6A002BF6D16F
S2140039A04FF0B0430222DA604FF0B0435B6823B1B9
S2140039B04FF0B0439B6A002BF6D1034B01225A60AE
S2140039C0704700BF00100058002000584FF0B0436A
S2140039D05B6843B14FF0B0435B6823B14FF0B04330
S2140039E09B6A002BF6D1154B01225A604378E3B14F
S2140039F013468278DAB102221343C278CAB104228F
S214003A001343027943EA0213427943EAC2034FF0B2
S214003A10B042936002F5805201235360037853B19D
S214003A2001224FF0B043DA6070470023E1E700223E
S214003A30E2E70022E4E70222F3E700BF0020005896
S214003A40074B4FF480325A6603F5E6235B69C3F3EF
S214003A508512827003F03F0242701B0B03707047A2
S214003A60009000500A4B984207D00A4B984209D063
S214003A70C36D43F08003C3657047A3F51033C3F8E6
S214003A808C11F5E7A3F52033C3F89C11F0E700BFCF
S214003A9000C005500000065038B5054614460B46D3
S214003AA031B1013B6400B3FBF4F31B02EB6138BD9C
S214003AB04FF42070FEF7BAFD0346F2E700F5805398
S214003AC001225A6040F6AA63436100238360C365FF
S214003AD041F20502C2600361C361C36400F500528F
S214003AE00C49916483650C4B984203D003F58043E0
S214003AF0984201D100230365074B984203D003F593
S214003B008043984201D10023436500F5005001230D
S214003B1043607047FFFF010000C0055038B50546FA
S214003B200C46FFF7CBFF05F5805301225A60AA68C2
S214003B30238A43F00103A17B002934D04FF480612F
S214003B400B431343AB60AB68227D002A2DD04FF0A9
S214003B5000521343AB60A37C4BBB237B43F48053E0
S214003B60EB60A26861682846FFF796FF637B0BB19F
S214003B7010236B61637D1BB1AB6843F48033AB608D
S214003B80A37D1BB1AB6843F40043AB60E37D1B072A
S214003B9003F0E043227E120502F4E0021343AB6515
S214003BA023786B6138BD0021CAE70022D1E7E17CAB
S214003BB02846FFF757FFD0E7836913F0800FFBD046
S214003BC0406AC0B27047836913F0400FFBD0C163F0
S214003BD0836913F0200FFBD0406AC0B27047836938
S214003BE013F0400FFBD0C16370470000411100F096
S214003BF01F00012303FA00F0034A52F82130034362
S214003C0042F82130704700BFBC130020044B1B68ED
S214003C101BB1044B0360002070470120704700BFB3
S214003C20CC1B0020B013002010B4124C2468B4B192
S214003C3000EB020C104C2488A44512DC01EB030CAC
S214003C400D4C6488A4450EDC7AB183B10A4CA08082
S214003C50E1802281638100205DF8044B70470120DB
S214003C60FAE70420F8E70420F6E70520F4E7052045
S214003C70F2E700BFCC1B0020B01300202DE9F04F68
S214003C8083B09B46474B1B68002B00F0848002469F
S214003C90454BDD88B3F80AA0AA441FFA8AFA0D44F9
S214003CA0ADB20D9E14E05F4628E0C70800F007019D
S214003CB0012202FA01F1DA5D0A43DA55013080B2D8
S214003CC0A042F2D34046FFF791FF0135ADB2002285
S214003CD0002E63D0554560D2334B1C89A41AB442DB
S214003CE028BF3446361B9888104480B2A8462F4B0F
S214003CF003EB0513BBF1000FD5D0FF27072C12D816
S214003D000444002FDCD10BE0C70800F007010122B5
S214003D1002FA01F1DA5D22EA0102DA55013080B2D8
S214003D20A042F1D3CEE7C10803EBD00910F007009C
S214003D3013D001228240D2B202F1FF3C13F801E018
S214003D4052423A4052B20CEA0E0C42EA0C025A5464
S214003D5009F101092044A0F10804E308019310D1F9
S214003D60002CAFD0012303FA04F4E4B2621E99F9E2
S214003D70003064421C4064B21740274389F8007044
S214003D80A0E71A46394648460AF0BDFB04F0070489
S214003D90019B9944E4E7012600E00426304603B080
S214003DA0BDE8F08FCC1B0020B0130020CC13002001
S214003DB010B582B0134B1B681BB10024204602B01E
S214003DC010BDFDF7C1FD044608B10124F6E7FDF776
S214003DD0AFFD0C4B186098B102880B4B1A804188D7
S214003DE0598000209880D8801A81598101FB02F200
S214003DF001920090034602460146FFF73FFFDDE7CB
S214003E000124DBE7CC1B0020B013002070B51C4B50
S214003E101C68012600231A460FE00BB9013216E093
S214003E20184901EB0211FDF725FD034618BB6A1C75
S214003E300DE0134951F826400136D5181249086896
S214003E4041888D4209D214F0010FE6D00133D11813
S214003E5011F01F0FEDD06408EFE72BB1094901EB15
S214003E600211FDF707FD40B9054B002018605860A9
S214003E709860D86070BD0720FCE70720FAE700BF0F
S214003E80BC130020CC130020CC1B002040B108B58A
S214003E9002685388128800210846FFF7C5FE08BD51
S214003EA00520704780B108B503468089198A5A698B
S214003EB0121A92B29B695B1A9BB2013301329BB213
S214003EC092B2FFF7B1FE08BD0520704740B38446A6
S214003ED041B30B688A68934226DA4868C968884204
S214003EE024DA002B24DB002824DB10B584B0DCF8B1
S214003EF00040B4F800E072451EDA6488A1421DDA7C
S214003F0000930190029203910CF10C0404AB13E9A8
S214003F100F0084E80F006046FFF7C4FF04B010BD32
S214003F20052070470520704704207047042070471E
S214003F3003207047032070470320EFE70320EDE7D8
S214003F4030B587B020B30446002343606FF07F434C
S214003F50836005A8FFF75AFE054610B1284607B04D
S214003F6030BD059B23600022019202921A88013A16
S214003F7003925B88013B049301A92046FFF7A6FF46
S214003F8005460028EAD10349204600F06AF9E5E72D
S214003F900525E3E7880101004FEA104C81F800C0D0
S214003FA0010A11701870704718B310B584B0044633
S214003FB00DF10D030DF10E020DF10F014068FFF734
S214003FC0EBFF2046FFF762FF08B104B010BD226881
S214003FD01389528902FB03F301939DF80D30009379
S214003FE09DF80E309DF80F2000210846FFF746FE8C
S214003FF0EBE705207047C8B170B582B00C46154691
S21400400006460C3000F030F810B9012002B070BD42
S214004010B268D3B2012101910093C2F30723C2F321
S2140040200742A9B2A0B2FFF729FEEFE705207047C6
S214004030C0B170B582B00C4615461E460C3000F076
S21400404013F810B9012002B070BDF3B2012201923C
S2140040500093C6F30723C6F30742A9B2A0B2FFF740
S2140040600DFEF0E705207047034668B100688842F9
S2140040700CDC986888420BDB596891420ADCDB68E6
S214004080934209DB012070470020704700207047EC
S2140040900020704700207047002070472DE9F04F41
S2140040A083B09DF83070002800F0918091469A46C3
S2140040B00546A1F12003DBB25E2B00F28A8090F861
S2140040C02830022B1BD020398BB200932B8C009A01
S2140040D0934240F28280EB6901934FF0000BD84682
S2140040E095F8253043456ED995F82230012B14D02B
S2140040F0022B17D0019B009A53F8226010E0A1F122
S21400410030039BB200933A2904D02029DED10B233A
S2140041100093DBE70A230093F7E7019B009A9E5C77
S214004120002413E0019B009A33F81260F8E708EBCE
S2140041300A0204EB09012846FFF75DFF012849D86B
S21400414008B90BF1010B76080134A4B295F82430B7
S214004150A34215D916F0010FE9D1002FF3D06B68F2
S21400416008EB0A0204EB09012846FFF761FF012865
S21400417030D80028E7D10BF1010BE4E70134A4B2F4
S214004180214695F8243095F8272013449C420FDAF0
S214004190002FF3D06B6808EB0A0249442846FFF765
S2140041A047FF012816D80028E8D10BF1010BE5E7F8
S2140041B095F82330009A13449BB2009308F1010847
S2140041C01FFA88F88CE7BBFA8BF0400902E005205E
S2140041D000E0022003B0BDE8F08F0220FAE72DE9E8
S2140041E0F04F85B003930E9E9DF83CA098B388468A
S2140041F091461F46054681B390F828307BB30024CD
S214004200A3460EE095F825301E4495F826301E4449
S214004210039F05E095F8243095F8272013441F44A3
S21400422001344C4511D218F804100A29EAD0CDF80A
S21400423000A033463A462846FFF730FF012807D845
S2140042400028E7D10BF1010BE4E7BBFA8BF040093D
S21400425005B0BDE8F08F0520FAE70520F8E7022054
S214004260F6E7C0B1034679B100B5D1F800E0D1F861
S21400427004C08868CA68C3F81CE0C3F820C0586247
S2140042809A6200205DF804FB0022C261026242626C
S21400429082620520704705207047F0B583B004465B
S2140042A00D4617461E4608460AF004FA024694F8DB
S2140042B0243000FB03FC94F8251094F826000844EC
S2140042C0099900FB0711012E0ED0022E12D00023F2
S2140042D09DF828000190009108990B442946204635
S2140042E0FFF77DFF03B0F0BD23681B88A3EB0C032C
S2140042F05B08EDE723681B88A3EB0C03E8E70000E8
S21400430038B5044604F0ACF8054DA446BCE80F00EA
S2140043100FC59CE8030085E80300002038BD00BFF9
S214004320D01B002047F6FF739A4275D0022975D835
S21400433070B53C4B03EBC10090F802C0604613F822
S2140043403130012B22D0374B03EBC1035C68002CC5
S21400435066D0B4F90050954204DBB4F90250954299
S21400436000DC1546A388FF2B2BD02826C823002266
S214004370AE465B1B93FBF6F313442A4A02EBC101DD
S2140043804D78691E994231D319462FE0254B03EB31
S214004390C103D878A0EB0C000025A8420ED9431B19
S2140043A0A0EB53031F4C04EBC104646834F91340BC
S2140043B0944201DC1D46F0E7581EEEE76044C0B2AA
S2140043C029E0B4F90630B4F908600122D0E703F515
S2140043D0FA73154AA2FB03239B094A1C954210D97F
S2140043E004EBC206B6889E420BD3114604EBC1020C
S2140043F09368B2F9062002FB0E33002BE7DA00239F
S214004400E5E704EBC1018A889A4200D31A46624562
S21400441000D31046C0B270BDFF2070470020704722
S2140044200020F8E7D01B0020D34D621002296DD87B
S214004430394B13F83130012B23D010B5364B03EB34
S214004440C1035C68002C63D014F1040C62D0324BBC
S21400445003EBC1039B7893422BD22F4B03EBC10394
S214004460DB78934228D92C4B03EBC10191F801E08D
S2140044700EF1FF3E5FFA8EFEA388FF2B1FD00023AF
S21400448021E0254B03EBC103DB78934200D21A46AA
S214004490214800EBC1008078121AD2B21B1A9A4249
S2140044A000DD00221C4B03EBC1014B6833F9120000
S2140044B07047B4F9020010BDB4F90000FBE7012311
S2140044C001E00133DBB2734505D2591C3CF83100DC
S2140044D091B28842F5D24FF47A7101FB02F20CEBEE
S2140044E0C30CDCF80430D31ABCF9022002EBD271FC
S2140044F003EB610393FBF2F3B4F900009842DADBB6
S214004500B4F902009842D6DC18B2D4E703487047E4
S2140045100248D0E70148CEE7D01B00200080FFFF0E
S21400452008B50348FFF7ECFE012003F0D5FF08BDF1
S214004530B804010030B583B0044603F0CFFF08B1DD
S21400454003B030BD6946204603F08CFF00B1FEE79D
S2140045509DF800300C4A12789342F1D0032B06D116
S21400456064250949204603F06AFF28B1FEE7204685
S21400457003F09CFF0546F4E72946204603F074FF47
S2140045800028DDD0FEE700BF6808002008B500213F
S21400459003F00CFD002008BD30B589B005460C467A
S2140045A000230193029303930493059306930793C2
S2140045B064220192962302930392049304F028FB4C
S2140045C0611E042929D8DFE801F0030C11171D002D
S2140045D0284604F035FB0446CCB104BB204609B09F
S2140045E030BD284604F032FB0446F5E70021284695
S2140045F004F032FB0446EFE70221284604F02CFBC9
S2140046000446E9E7284604F015FB0446E4E701A95A
S214004610284603F0DFFC0446DFE70124DDE72846F2
S21400462004F005FBDAE770B58CB004460D462C2284
S214004630002101A809F067FF4FF42873ADF80A308F
S21400464002228DF80C2001238DF80D308DF80E20F7
S2140046508DF80F3064220492B62105910692C0228E
S21400466007920B228DF82C208DF82D3001A92046BC
S21400467004F064FA064650B9063D032D1DD8DFE85F
S21400468005F0020D1217204604F08EFA0646B6B163
S214004690204604F0A1FA30460CB070BD204604F067
S2140046A089FA0646F3E7204604F090FA0646EEE757
S2140046B0204604F085FA0646E9E70126E8E70821E1
S2140046C0204603F073FCE6E708B5052907D84BB289
S2140046D063B911B9FFF75AFF00E0012008BD8B1F30
S2140046E0DBB2032B05D8FFF79EFFF7E7FFF754FF73
S2140046F0F4E70120F2E7000000B587B0002301933D
S214004700029303930493059302238DF804300A4A18
S21400471002928DF80D3004228DF80E208DF813309D
S21400472005238DF814300DEB02014FF0FF3003F037
S21400473091FF07B05DF804FB006A180008B5002179
S2140047404FF0FF3003F089FF08BD00002D2822D867
S214004750DFE800F01721212121212121212121211B
S2140047602121212121212121212121212121212134
S21400477021211B212123212121211D212121211F2E
S2140047802119074870470748704707487047074889
S214004790704707487047074870470748704700BF8C
S2140047A0DC0601007405010088050100B005010063
S2140047B0C80501003C0501004C05010070470020BB
S2140047C0704700207047000010B504464FF42F7263
S2140047D0002109F098FE8023C4F88C30044B6360F7
S2140047E00123237204F19C00FDF71AFA10BD00BFE6
S2140047F0E805010010B503460846D3F8A0202AB104
S214004800D3F8A41090470024204610BD184600F0A8
S214004810A7FD04460028F7D0FFF798FF0146024898
S21400482001F011F9F0E700BF94F1000001230372D4
S214004830437A03B9704710B5044600F039FF04F117
S21400484009012046FFF7D6FF204600F038FE10BDCF
S214004850F8B5067816B100263046F8BD0546FFF7CF
S214004860B0FF0028F8D101232B702B7A0BB93746FE
S21400487016E000232B726968194801F0E4F8F6E7A1
S21400488001F0C5F8044614E02846FFF797FFE1B2AA
S214004890284600F049FF0646B4F1FF3F0ED06EB939
S2140048A0D5F8B442B4F1FF3FEAD04FF0FF33C5F875
S2140048B0B432B4F1FF3FE7D10127EDE71EB900237C
S2140048C02B703E46C8E72846FFF7B0FF2B7A002B32
S2140048D0F5D06968024801F0B6F800232B72EEE7BF
S2140048E0C8F1000038B504460D46FFF76DFF6B684B
S2140048F0C4F8B032A968204600F0F8FB4FF0FF334A
S214004900C4F8B4322046FFF75AFF38BD08B5FFF7A3
S2140049109FFF08BD1038072801D8012070470020E7
S2140049207047A0F11003072B00D8D8B270470000DC
S214004930F8B506460D4617460B78302B0DD04FF0CF
S214004940000C15F80C30002B4AD0374C1B5D13F0CA
S214004950040F66D00CF1010CF3E74B78782B04D0EB
S214004960582B0CD04FF0000CEBE70222AB5C43B1A7
S2140049702D495B5C13F0440F51D00132F6E702225A
S214004980F4E7724206F0030302F0030258BF5342F4
S214004990032B16D1284609F08DFE0238013608D4BE
S2140049A0B310B0EBA60F06D09842ACBF0020012093
S2140049B038E00336F4E7A87837288CBF00200120BB
S2140049C030E0284609F076FE831E3246002E05DBD0
S2140049D0B3EBA20FD4BF0120002023E0F21CF7E7C0
S2140049E00A220021284609F0A3FF02460C46202E84
S2140049F011D02FB151EA000302D0421E61F100042B
S214004A000123B340013B1340002C08BF93420CBF68
S214004A100120002006E0B1FA81F0400902E0002003
S214004A2000E00020F8BD00BF1D51010008B50B785E
S214004A302D2B04D000220138FFF77AFF08BD012293
S214004A4011440138FFF774FFF8E7000003787B2B6A
S214004A501CD14FF0000C0123C25C7D2A0ED00E49FB
S214004A60515C11F0440F03D00CF1010C0133F3E755
S214004A70202A01D0002070470133EDE71844437820
S214004A8033B91CF0010F05D1012070470020704794
S214004A9000207047002070471D51010008B5072808
S214004AA026D8DFE800F0060B1015191D042101209A
S214004AB008BD00220820FFF73BFFF9E70022102080
S214004AC0FFF736FFF4E700222020FFF731FFEFE77D
S214004AD00820FFF7ABFFEBE71020FFF7A7FFE7E79D
S214004AE02020FFF7A3FFE3E70846FFF7AFFFDFE767
S214004AF00020DDE72DE9F04383B00C4617461D463F
S214004B000A9EDDF82C8021282BD8DFE800F0112D36
S214004B10445A71889EA22A2A2A2A2A2A2A2A2A2A15
S214004B202A2A2A2A2A2A2A2A2A2A2A2A2A2A2AD337
S214004B3000221146204609F077FFD8F80030C0B2B0
S214004B4045F82300D8F80030326805EB830347F8B1
S214004B502230D8F800300133C8F80030336801330B
S214004B60336003B0BDE8F08300221146204609F00A
S214004B705BFFD8F8003080B245F82300D8F8003044
S214004B80326805EB830347F82230D8F8003001334B
S214004B90C8F80030E2E700221146204609F044FF3C
S214004BA0D8F8003045F82300D8F80030326805EB16
S214004BB0830347F82230D8F800300133C8F80030B5
S214004BC0CCE700221146204609F012FE40B2D8F883
S214004BD0003045F82300D8F80030326805EB830330
S214004BE047F82230D8F800300133C8F80030B5E76F
S214004BF000221146204609F0FBFD00B2D8F800302E
S214004C0045F82300D8F80030326805EB830347F8F0
S214004C102230D8F800300133C8F800309EE7002272
S214004C201146204609F0E4FDD8F8003045F8230088
S214004C30D8F80020336805EB820547F82350D8F8EB
S214004C4000300133C8F8003088E7336847F823108F
S214004C5084E74FF000098DF80690C846012512E05B
S214004C60013510E08DF8053008F10108102200210A
S214004C7001A809F0BDFD09F10203E05409F101099C
S214004C801FFA89F90135635D7D2B09D0202BE7D00B
S214004C9018F0010FE6D18DF8043008F10108F1E7AD
S214004CA084F800904FEA192984F80190336847F891
S214004CB0234053E7336847F823104FE72DE9F04FBA
S214004CC087B09B460023059304938B4500F38A80A8
S214004CD080468A4617461C461E46994602E04FF016
S214004CE00109013418F80400FF280CD02028F6D05B
S214004CF0212805D0FFF70EFE0028F2D00646F0E782
S214004D004FF00109EDE705465C44B9F1000F06D007
S214004D10013C544568DC0024A146029443E03EB1C1
S214004D20013C544562DC0024CDF80890A1463AE0E8
S214004D30A2455DD100240296A14634E008EB0903A3
S214004D405B78FF2B0ED02B2049E0039B43445B7817
S214004D50FF2B4FD10123029304E009F101093546E8
S214004D6000E00625029B93B957F824102846FFF763
S214004D7095FE002842D004AB019305AB0093119B2F
S214004D80109A57F824102846FFF7B4FE0AE004AB42
S214004D90019305AB0093119B109A57F8241021201D
S214004DA0FFF7A8FE0134544518DA5C45D9DBCDF888
S214004DB00C9018F80960202EC0D0212EC5D03046A1
S214004DC0FFF7A8FD0028C8D0039B43445B78FF2B61
S214004DD012D13046FFF7A5FD0546C3E7002007B011
S214004DE0BDE8F08F2120FAE72B20F8E72B20F6E726
S214004DF02B20F4E72B20F2E72B20F0E72620EEE727
S214004E00212816D821283AD8DFE800F0113B191BD4
S214004E101D1F212339393939393939392527292BA5
S214004E202D2F313339393939393939393537184829
S214004E307047FE2827D0FF2827D116487047164807
S214004E407047164870471648704716487047164809
S214004E5070471648704716487047164870471648F9
S214004E6070471648704716487047164870471648E9
S214004E7070471648704716487047164870471648D9
S214004E80704716487047164870471348704700BF6B
S214004E9098060100A8060100FC05010004060100B2
S214004EA00C060100140601001C0601002406010081
S214004EB02806010034060100400601004C060100E9
S214004EC054060100600601006C0601007806010029
S214004ED0800601008C060100EC050100F4050100C7
S214004EE0A006010008B5FCF7E5FE08BD2DE9F04771
S214004EF084B081468A4690461D460C9F0D9E044609
S214004F000EE018680F9B03930E9B02930196009782
S214004F102B4642460121FFF7E9FF044618E00C3411
S214004F202068A8B133682A68934211DA57F823102C
S214004F30FFF7D8FF0028F2D1336801333360636887
S214004F401A7BFE2ADDD001230E9A137088F80030F3
S214004F5098F800305BB90F9B1B7843B9BAF1000F85
S214004F6009D001230F9A137088F800304C4620466B
S214004F7004B0BDE8F0870024F9E7000070B50646E7
S214004F800D4609F097FB0446304600F05CFD03E052
S214004F90034800F058FD0134AC42F9D370BD00BFA1
S214004FA0AC0601002DE9F84F044602213248FFF70F
S214004FB0E5FF1E212068FFF7E1FF6368586800F0F0
S214004FC042FD2E4800F03FFD63681A7BFD2A51D84B
S214004FD003F10C09D3F808A0504609F06BFB804695
S214004FE04FF0FF34002510E02B2000F020FD36E0C7
S214004FF000F01DFD01341AF804001F2801D04445B6
S214005000F6DB1E4800F01FFD0135AB4619F80560BB
S214005010FF2E2FD03046FFF7F3FE0746B8F1000FFD
S21400502000DD0134202EEFD0134E02213046FFF76C
S214005030A5FF1E213046FFF7A1FF114800F003FD33
S2140050401049384609F02CFB00B90F4F39460F4877
S21400505000F0F9FCCB449BF80130202BC4D00C4860
S21400506000F0F1FCB8F1000FCBDD1AF804301F2B6E
S214005070C7D0C0E7BDE8F88FDC060100F0F20000FC
S214005080B40601008C060100B0060100C8F100005D
S214005090B806010038B50546002402E0FFF782FF97
S2140050A0013404EB440305EB830055F8233023B1A9
S2140050B0037A002BF2D00134F3E738BD10B539B1CE
S2140050C0084612B1FFF76EFF10BDFFF7E3FFFBE7E0
S2140050D0D0F89C4000E02468002CF5D0A06800289A
S2140050E0F9D0FFF7D7FFF6E77047704759B10A794E
S2140050F00AB10020704710B501240C719C30FCF7F3
S21400510092FD204610BD0020704700002DE9F04FAC
S21400511095B08146059106921C4602931E9E00F1AC
S214005120090215460892104609F0C4FA07900023B3
S214005130236033600CAA0BA9284600F0ACFC0028BC
S21400514040F0BE800C9809F0B5FA2060D9F89C3083
S214005150039300231C4604939A46A0E000242BE009
S214005160013429E00B9B013B53454FD00F6858464E
S21400517009F0A0FA336803440133336001E00133D9
S2140051803360336809EB0302527A002AF7D00AF13B
S214005190010A019C10E0049B013304934246DDF8AB
S2140051A018804146059D2846FCF771FD474A414652
S2140051B02846FCF76CFD013404EB440307EB83053B
S2140051C057F82330002B33D00B9B534530DB2B7A1C
S2140051D0002BC5D1D9F894203368D21A029B1A60E6
S2140051E014AB03EB8A0353F820BCD5F80080414685
S2140051F0584609F067FA01900028DCD1404609F0CD
S21400520059FA844669680A7BFE2AABD0D9F89430EE
S21400521030681B1A654663450DDC059809F04AFAA6
S21400522005447B2DB7D92A4A06990598FCF72FFD29
S214005230089B079A28E0FE2ABDD10B9B013B5345ED
S214005240B9D10D680994019C049FDDF81480DDF83F
S21400525018B004EB440355F823205AB1594640468B
S214005260FCF715FD194A59464046FCF710FD013774
S2140052700134EEE7099C0497079B33600023029AEB
S2140052801360D5E70133013A002A05DD19780029B5
S214005290F8D120211970F5E7039B1B680393039B45
S2140052A083B1039B9F68002FF6D009EB04035B7A5B
S2140052B0202B7FF453AF3368013333600134F4E7B7
S2140052C000230493049815B0BDE8F08FAC060100E7
S2140052D0BC0601002DE9F04786B004460F46164688
S2140052E01D46DDF83890DDF83C8000238DF8173039
S2140052F02B6089F8003088F800302B6852F82310AD
S2140053001648FFF7EFFD40B92B6801332B604FF0CE
S214005310010AD4F89C40002003E04FF0000AF8E7AA
S214005320246894B1A0680028FAD0CDF80C80CDF897
S2140053300890019500963B460DF117020021FFF7F5
S214005340D5FD9DF81730002BEAD0BAF1000F02D039
S214005350012388F8003006B0BDE8F087C4060100D7
S214005360F0B5A3B0054608461AAA19A900F093FBA3
S214005370044610B1204623B0F0BD00238DF80B3054
S2140053800DF10B0301930DF10A03009303AB1AAA68
S21400539019A92846FFF79EFF9DF80B3013BB40B3B4
S2140053A0466806F10C0711AB019309AB0093039B0B
S2140053B01AAA19993846FFF781FC04460028D9D165
S2140053C00495199B059309AB0693039B07930897CF
S2140053D004A8FFF789FE336804A8984704A8FFF7D7
S2140053E084FEC7E79DF80A2001462846FFF766FEBA
S2140053F0C0E72D24BEE700230B601360D0F8AC3264
S214005400B3B3944690F8AC30A3B300B54FF0010E9A
S214005410002313E00133B3F5007F0DD20A68013292
S2140054200A60DCF800200132CCF80020C21892F89E
S214005430AC200A2AEED101330EF1010ED0F8AC22D0
S2140054407245E8D805E0DCF800200132CCF80020F0
S2140054500133B3F5007F08D2C21892F8AC200A2AAE
S2140054600AD0002AEFD1012000E001205DF804FBFD
S21400547000207047002070470120F7E770B505460A
S2140054800024264600E0013405F1AC0009F012F9CC
S214005490A04207D92B1993F8AC301BB10A2BF2D1D6
S2140054A00136F0E7304670BD08B50844407A00F093
S2140054B0BEFA08BD08B5082000F0B9FA08BD10B558
S2140054C00446D0F88C200021093009F01CF800238F
S2140054D0C4F89030C4F8943010BD000070B5ADF537
S2140054E0447D04460021A4917C22A5A809F00BF86F
S2140054F0A3AB0093A2AB8022A4A92046FFF706FE2A
S214005500012804D0012842DC0DF5447D70BDA4A816
S21400551009F0D0F80546A299431AA39A0A4408321D
S21400552022440132A4A8014404E011F8010B02F859
S214005530010B013B002BF8DC00231370D4F89060BD
S2140055400AE0D4F890102046FFF7AEFFD4F890306B
S2140055500133C4F890300136A29AA39B1344B34299
S214005560EFDCAD1AD4F894302B44C4F89430D4F859
S21400557090302B44C4F89030A4AB9C1804E014F888
S214005580010B00F054FA013D002DF8DCBCE7802248
S214005590002102A808F0B7FF4FF40072002122A8ED
S2140055A008F0B1FF0125002300E0013303F5447243
S2140055B06A4412F8802C3AB1202AF6D15A1C22A945
S2140055C041F825200135F0E722AA42F82530A4A8A4
S2140055D009F070F8002115E0013222AB53F82230B2
S2140055E0834209D00B4403F544736B4413F8803CA4
S2140055F06345F1D0002300E0012363B102AB03F85A
S21400560001C001318D4209DB01F544736B4413F888
S21400561080CC0022E1E702AB00225A54D4F8905026
S2140056200AE0D4F890102046FFF73EFFD4F89030FA
S2140056300133C4F890300135A29BAB42F1DC04F193
S2140056400903194AA4A9194800F0FDF902A809F0AF
S21400565031F8A29AA39BD11808312144013102AB3C
S2140056609D18821A0EE015F8013B01F8013BD4F8AC
S21400567090300133C4F89030D4F894300133C4F835
S2140056809430013A002AEEDC00230B70A29C02AB99
S2140056901D19041B04E015F8010B00F0C8F9013CC5
S2140056A0002CF8DC30E700BFE8050100CC0601005E
S2140056B0F0B583B004460EE02046FFF7DFFEC4F8E0
S2140056C0AC0201AA69462046FFF795FE009B2344DC
S2140056D0002283F8AC2004F10906304608F0EAFF01
S2140056E0451C04F1AC07384608F0E4FFC0F500732B
S2140056F09D42E1D8421C3946781908F0EAFE304649
S21400570008F0D8FF02463146384608F0D5FE304647
S21400571008F0D0FF20440A2380F8AC300023C4F8F9
S214005720AC3203B0F0BD00002DE9F84304460D4648
S214005730D0F89060D0F8947000F1090890F898308E
S214005740012B0AD0012B0ED9022B00F0C680032BAA
S21400575000F0D2800020BDE8F8830A29F2D10020AC
S21400576084F89800F7E71B2D29D00D2D2CD00023A8
S21400577084F89830082D2BD07F2D68D00D2D00F0A2
S21400578088800A2D00F08580092D00F08F80D4F8DF
S2140057908C30013BBB4240F3E280BE42C0F28B80BD
S2140057A008F806500136C4F89060D4F894300133F7
S2140057B0C4F89430284600F03AF90020CBE70223DC
S2140057C084F898300020C6E7012384F89830D1E7A3
S2140057D0002E01DDBE420CD0002E01DDBE4217DBDE
S2140057E0002E00F0BA80C4F89060C4F894700020D0
S2140057F0B1E7082000F01BF9202000F018F9082077
S21400580000F015F9013E002308F80630013FEAE7EC
S21400581006F1FF39082000F00AF908EB0905A7EBA6
S214005820090208EB0601284608F053FE002308F894
S214005830073029464C4800F006F9013F3D4602E095
S214005840FFF738FE013D4D45FADC4E46CBE7002F0C
S21400585001DDBE4201DB00207DE708EB0605711C7A
S214005860BA1B4144284608F034FE002308F80730E7
S21400587029463E4800F0E7F803E0082000F0D7F895
S214005880013FB742F9DCD4F89430013BC4F89430B9
S214005890E1E70D2000F0CBF80A2000F0C8F800235E
S2140058A0C4F89030C4F89430012054E72046FFF73F
S2140058B015FE00204FE7701C08EB0609BA1B494688
S2140058C0404408F006FE484600F0BDF802E0FFF748
