S00C000042694469722E7333371E
S21400000000080020511A00004D1A00004D1A00008A
S214000010756400004D1A00004D1A00004D1A0000CD
S2140000204D1A00004D1A00004D1A00004D1A00002F
S2140000304D1A00004D1A00004D1A00004D1A00001F
S2140000404D1A00004D1A00004D1A00004D1A00000F
S2140000504D1A00004D1A00004D1A00004D1A0000FF
S2140000604D1A00004D1A00004D1A00004D1A0000EF
S214000070E56900004D1A00004D1A00004D1A0000F8
S2140000804D1A00004D1A00004D1A00004D1A0000CF
S2140000904D1A00004D1A00004D1A00004D1A0000BF
S2140000A04D1A00009D210000752100004D1A000029
S2140000B04D1A0000CDC200004D1A0000ADCC000065
S2140000C065CC000061CC00009DC40000A9CC0000F7
S2140000D069CC000081CC00006DCC00000DCD000086
S2140000E045B20000A9B20000EDCC00004D1A000099
S2140000F04D1A00004D1A00004D1A00004D1A00005F
S2140001004D1A00004D1A00004D1A00004D1A00004E
S2140001104D1A00004D1A00004D1A00004D1A00003E
S2140001204D1A00004D1A00004D1A00004D1A00002E
S2140001304D1A00004D1A0000C1100000B11000005A
S21400014010B5054C237833B9044B13B1044800E0CE
S21400015000BF0123237010BD1C0900200000000012
S2140001608049010008B5034B1BB10349034800E072
S21400017000BF08BD000000002009002080490100E3
S214000180A3F5803A704700BF174B002B08BF134BF0
S2140001909D46FFF7F5FF00218B460F461348144A8D
S2140001A0121A0DF05EFD0E4B002B00D098470D4B3B
S2140001B0002B00D098470020002104000D000D48B9
S2140001C0002802D00C4800E000BF0DF0FFFC200025
S2140001D0290000F067FE0DF0E5FC00BF00000800F7
S2140001E00000000000000000000800201C0900209D
S2140001F0D0200020000000000000000008B503200A
S21400020001F042F940B9032001F03EF970B903202D
S21400021001F03AF9B8B908BD01F056F901F055F900
S2140002201149124B186805F09FFDECE701F04CF9F8
S21400023001F04BF90E4B9A6CDB6C0E490B480068CC
S21400024005F092FDE3E701F03FF901F03EF9074BB8
S2140002501868094B1B7823B1084A094905F084FD44
S214000260D9E7084AF9E700BFC0E8000014110020EB
S2140002700080E00FC8E8000006080020BCE8000088
S214000280E0E80000B8E8000008B5094B01221A7043
S214000290032001F0F9F800B908BD01F015F901F0E6
S2140002A014F90449044B186805F05EFDF4E700BF36
S2140002B0C40D0020F4E800001411002010B5836877
S2140002C0C26853F822301B7843B90C4B00221A70D0
S2140002D00B4C032001F0D8F828B910BD074B0122BB
S2140002E01A70084CF5E701F0EFF801F0EEF8224638
S2140002F00549064B186805F037FDEEE706080020AE
S214000300B8E80000BCE800000CE90000141100206A
S21400031010B58AB0002001F091F83C4C206000F047
S21400032079FD3B4801F02AFE3A4801F027FE0023FB
S21400033004220121084603F045FA00230422022184
S214000340012003F03FFA00F007FB00221146206868
S21400035007F0D4FC40BB0DF1140C2F4C0FCCACE8CE
S2140003600F0023682CF8023B1B0C8CF8003003208F
S21400037001F08AF848BB294B93E803000390ADF8D8
S2140003801010090C8DF81210254B93E8030001900D
S214000390ADF80810032001F077F808BB032001F041
S2140003A073F848BB0AB010BD0446022001F06CF892
S2140003B00028D0D001F088F801F087F822461949C5
S2140003C0194B186805F0D0FCC5E701F07DF801F080
S2140003D07CF805AA1549144B186805F0C5FCCAE751
S2140003E001F072F801F071F801AB03AA10490E484B
S2140003F0006805F0B9FCD1E701F066F801F065F891
S2140004000C49094B186805F0AFFCCBE7380900200B
S2140004102CF5000044F5000074E9000088E90000AF
S21400042090E9000024E900001411002040E90000D3
S21400043044E9000050E9000070B582B00A46012386
S21400044001461648006808F013F8062801D102B0E5
S21400045070BD0446124E134D3146286805F084FCE4
S21400046001F032F801F031F80F4B00934FF4587357
S2140004700E4A0F49286805F077FC0E4A0E49286890
S21400048005F072FC062322460C49286805F06CFC31
S2140004903146286805F068FCFEE700BF38090020F2
S2140004A0BCEA00001411002054ED000098E900009A
S2140004B0ACE90000B8E90000E4E90000FCE900004F
S2140004C070B505460C4616468A8889680DF0A2FB6C
S2140004D0E16831B16288A088121A92B228440DF001
S2140004E099FB35606088B0F5007F28BF4FF4007038
S2140004F070BD0000034A1378DBB203490B7010701E
S214000500704700BF790900207809002010B50E4B0F
S21400051004221A64002211460C4B186807F0EEFB02
S21400052000B910BD0446022000F0AEFF0028F8D047
S21400053000F0CAFF00F0C9FF22460549054B1868BF
S21400054005F012FCEDE700BF00D00350380900208C
S21400055024E900001411002010B5164A1368013370
S2140005601360154883701A0AC2701A0C02711B0EAB
S21400057043710621FFF760FF104B02221A64002326
S2140005801A4619460E48006807F0AAFB00B910BDC7
S2140005900446022000F078FF0028F8D000F094FF10
S2140005A000F093FF22460749074B186805F0DCFB6E
S2140005B0EDE700BF580900200008002000D00350D7
S2140005C03809002048EA00001411002070B50646DD
S2140005D00D46214A1168214B19608378C17803EBD8
S2140005E00123017903EB0143417903EB01631360B7
S2140005F0032000F049FF08B900240BE000F064FF78
S21400060000F063FF1649174B186805F0ADFBF3E7DB
S2140006100134A4B2AC420FD2032000F035FF00280C
S214000620F6D000F051FF00F050FF325D0E490D4B42
S214000630186805F099FBEBE7032000F025FF00B9EA
S21400064070BD00F041FF00F040FF0849054B1868F8
S21400065005F08AFBF4E700BF48090020B009002037
S21400066064EA0000141100206CEA0000BCEA0000F6
S21400067008B5032000F008FF00B908BD00F024FF0D
S21400068000F023FF034B1A680349044B186805F073
S2140006906BFBF2E75809002078EA000014110020EE
S2140006A030B587B001AA0221274B186807F000FF73
S2140006B004460CE0254B1B785BBB254801F063FC29
S2140006C001AA0221204B186807F0F2FE0446002C0F
S2140006D034D0002300936A4601A91E48FFF7F0FEB7
S2140006E005462146184B186807F0E8FE0446002821
S2140006F0E0D0022000F0C8FE0028DBD000F0E4FEC8
S21400070000F0E3FE22461449144B186805F02CFB53
S214000710D0E729460098FFF759FF114B1B68114A8E
S21400072012689B1A012B04D90F4A93680133936011
S214000730C3E70D4A136801331360BEE70B4B042270
S2140007401A6407B030BD00BF380900200608002034
S2140007502CF50000B809002080EA000014110020E3
S21400076048090020B00900204C09002000E0035092
S2140007702DE9F0432DED028B8DB0674B1A68674B61
S2140007801B68D31A07EE903AF8EE677AB3EE047A4F
S21400079087EE878ADFED627AC7EE887A17EE908A50
S2140007A060494B6889680B4407EE903AF8EE677A22
S2140007B09FED5D7A67EE877A07EE102AB8EE477AE5
S2140007C0C7EE877A17EE909A032000F05DFE0028A9
S2140007D075D1032000F058FE002840F08480534D69
S2140007E05349284603F019FD012602960024019479
S2140007F00094334605224F49284603F02AFD494F08
S2140008003B684D4A202104A807F008FA0296019496
S21400081000942346062204A9284603F01AFD7B68A6
S214000820464A202104A807F0F9F90296019400949C
S2140008302346072204A9284603F00BFD48460CF081
S214000840E7FCCDE900013E4A202104A807F0E6F9BE
S2140008500296019400942346082204A9284603F031
S214000860F8FC18EE100A0CF0D3FCCDE90001354A6E
S214000870202104A807F0D2F902960194009423469A
S214000880092204A9284603F0E4FC40460CF0C0FC0C
S214000890CDE900012C4A202104A807F0BFF90296F2
S2140008A00194009423460A2204A9284603F0D1FCAA
S2140008B003F088FA0DB0BDEC028BBDE8F08300F0C3
S2140008C003FE00F002FE48460CF0A2FC154B9A68A8
S2140008D001925B68009302460B461C491C48006860
S2140008E005F042FA75E700F0EFFD00F0EEFD18EEB9
S2140008F0100A0CF08DFC04460D46154B1E6840464B
S2140009000CF086FCCDE9000122462B461149304604
S21400091005F02AFA63E700BF58090020A80900205E
S2140009200044C5475C0900200000C8427C0900203E
S214000930D4F80000B4EB0000ECEA000000EB000086
S2140009402CEB000040EB0000C8EB000064EB00005E
S2140009501411002088EB0000F0B585B0002003F0ED
S21400096003FA00B1FEE7344803F0C6FA00B1FEE72A
S214000970314D6FF07F436B600024AC60284603F077
S214000980EFFA2E4E3146284603F047FC2C4F0294D1
S2140009900194009401231A463946284603F059FC70
S2140009A0029401940094012302222649284603F06B
S2140009B050FC029401940094012303222249284605
S2140009C003F047FC02940194009401230422394664
S2140009D0284603F03EFC1D49284603F01EFC029400
S2140009E001940094012306221949284603F031FC9D
S2140009F0029401940094012307221649284603F026
S214000A0028FC0294019400940123082212492846E7
S214000A1003F01FFC3146284603F0FFFB02940194C6
S214000A20009401230C220D49284603F012FC03F023
S214000A30C9F905B0F0BD00BF7C090020A4F5000090
S214000A40DCEB0000F0EB000004EC0000D4F8000043
S214000A5018EC000024EC000034EC000044EC00002D
S214000A6010B582B0714B1B78E3B1704B00221A7040
S214000A706F4B04221A646F4B1B7813B96D4B01221F
S214000A801A700420FFF736FD6B4B1B78DBB20B2B7E
S214000A9000F2A780DFE803F0474247474D65594715
S214000AA0537A5F8F654B1B78A3B9654B1B78FBB9F0
S214000AB0644B1B783BBB644B1B78002BE4D0624B2B
S214000AC000221A70614A5368013353600B20FFF707
S214000AD011FDD9E7594B00221A705D4B02221A64A9
S214000AE05C4A1368013313600820FFF703FDCBE769
S214000AF0534B00221A70584A53680133536005203E
S214000B00FFF7F8FCC0E74F4B00221A70514A5368B3
S214000B10013353600920FFF7EDFCB5E70720FFF728
S214000B20E9FCFFF719FD4D4B1B78002B6AD102B08C
S214000B3010BD0A20FFF7DEFCFFF7B2FDF3E7062044
S214000B40FFF7D8FCFFF794FDEDE70320FFF7D2FC94
S214000B50FFF7DCFCE7E70720FFF7CCFCFFF7FCFC21
S214000B60E1E70620FFF7C6FC012000F08DFC002818
S214000B70D9D000F0A9FC00F0A8FC394BD3E900233B
S214000B8038493948006805F0EFF8CCE70A20FFF747
S214000B90B1FC012000F078FC0028C4D000F094FCE2
S214000BA000F093FC2E4BD3E9002330492E48006812
S214000BB005F0DAF8B7E72E4B1B78DCB2012000F020
S214000BC063FC0028AFD000F07FFC00F07EFC0094B1
S214000BD0234BD3E9002327492348006805F0C4F8CF
S214000BE0A1E7012000F050FC00289CD000F06CFC2F
S214000BF000F06BFC104B1A781F491B4B186805F069
S214000C00B3F890E707F07CFC1C4B1B6898428ED329
S214000C10FFF7AEFD1A4B1A681A4B1A6007F070FC05
S214000C20194B0344154A136081E700BFAC09002046
S214000C3000D00350B80B002079090020AD09002031
S214000C40B4090020C00B0020680900203C090020E1
S214000C5000E003505C0900204C090020C40D002071
S214000C607009002054EC00001411002068EC00000D
S214000C70690900207CEC000094EC0000BC0B00200E
S214000C8058090020A8090020002D310138B5144667
S214000C901D461B4BC3E900451A4B134205D002F014
S214000CA0080393B9184B01221A7004F0AA4305F002
S214000CB02202134305D004F0807373B1134B012254
S214000CC01A7015F4007F0CD138BD114B186807F068
S214000CD0F3FB104B01221A70E7E70F4B01221A7044
S214000CE0EFE7002211460A4B186807F079FB0B4B1A
S214000CF018701B78002BE7D0094B01221A70E3E727
S214000D0070090020088D0100B4090020AD090020FC
S214000D1038090020AC090020C00B0020690900201B
S214000D206809002010B584B000F0E3FF012801D068
S214000D3004B010BD2A4C237883F0010323702949A0
S214000D40294803F06AFA23785BB3032000F09CFB83
S214000D50E8B9264801F00DF9012402940023019316
S214000D60009323460C2222491F4803F072FA07F02C
S214000D70C7FB204B0344204A1360204B1A68204BC5
S214000D801A602046FFF7B6FB03F01CF8D0E700F029
S214000D909BFB00F09AFB1B491B4B186804F0E4FF12
S214000DA0D7E7032000F070FB80B9104801F0E6F8A2
S214000DB0012302930022019200920C2213490A4852
S214000DC003F047FA0220FFF795FBDDE700F07CFB17
S214000DD000F07BFB0E490C4B186804F0C5FFE4E7F7
S214000DE0C40D0020A4F500007C09002044F5000096
S214000DF054EB0000002D3101BC0B002058090020E8
S214000E00A8090020A8EC00001411002044EC000003
S214000E10B4EC000070B582B04FF40073002217499E
S214000E201748006807F026FBB0F5007F01D102B036
S214000E3070BD0446134E144D3146286804F094FFE6
S214000E4000F042FB00F041FB104B009340F29F2362
S214000E500F4A1049286804F087FF0F4A0F49286890
S214000E6004F082FF4FF4007322460D49286804F010
S214000E707BFF3146286804F077FFFEE7C40B0020AE
S214000E8038090020BCEA00001411002044ED0000E0
S214000E9098E90000ACE90000C0EC0000E4E90000BE
S214000EA0ECEC000008B505F0C0FDFFF731FA05F0E0
S214000EB0C8FDFFF7D5FDFAE7704708B500F02FFB31
S214000EC008BD000030B585B0094C2268094B1A6091
S214000ED0094D0A4B2B600A4B019304F0E9FE029081
S214000EE02B68039301A9206803F0DAFC05B030BD37
S214000EF020080020901B00208C1B002014080020D7
S214000F005CF2000038B504F0D3FE0446064D2B68AC
S214000F10D3F8B00204F0C0FE286803F0D5FC2046E3
S214000F2004F0BAFE38BD00BF2008002008B5032133
S214000F30802001F007FF03214FF4806001F002FFDC
S214000F4003214FF4906001F0FDFE08214FF4C060CD
S214000F5001F0F8FE08214FF4F06001F0F3FE0821DE
S214000F603E2001F0EFFE08212D2001F0EBFE0020D0
S214000F7008BD000008B5154B1B68C3F30743012BDB
S214000F8010D004F06DFE00F0E8FA04F0E3FD04F083
S214000F9007FE04F04BFEFFF7C9FF04F0EDFD00F07E
S214000FA0D0FA08BD0A4B5A6E03F580534FF48021E1
S214000FB0596603F510430421196212F4802FE0D11C
S214000FC0A3F500434FF480225A66DAE70080E00F6C
S214000FD00080005008B500F041FF01F075F800F001
S214000FE03FFA00F045FA00F021FB08BD08B503F013
S214000FF073FA03F05FFB03F07FFB00F02DFA08BDE9
S21400100008B500F063FA08BD704708B5FFF77AFF29
S21400101008BD7047704708B500F046F808BD08B52B
S21400102000F079FA05F0FAFA05F028F805F0A8F9C4
S214001030FFF7F1FFFFF746FF08BD000010B59AB0B6
S214001040164C0DF1480CA646BEE80F00ACE80F00A3
S2140010509EE80F008CE80F000DF11C0C04F1200E2A
S214001060BEE80F00ACE80F00BEE80F00ACE80F00CB
S2140010709EE807008CE807000DF10C0C04F14C0309
S2140010800FCB8CE80F00064B009307AB12AA614605
S214001090044804F0CDFE1AB010BD00BF74F2000084
S2140010A084100020FC10002008B5FFF7C7FF08BD1D
S2140010B008B5024B186804F0A1FF08BDFC1000201C
S2140010C008B5024B186804F099FF08BDFC10002014
S2140010D0F0B583B005460E46104F114C39462068D1
S2140010E004F042FE00F0F0F900F0EFF90D4B00932B
S2140010F039230D4A0D49206804F036FE0C4A0D4986
S214001100206804F031FE33462A460B49206804F076
S2140011102BFE3946206804F027FEFEE7BCEA0000F6
S214001120141100201CF30000D0F20000ACE900000F
S214001130F4F20000E4E90000F8F2000008B5FFF75A
S214001140C7FF08BD704708B5FFF7FCFF08BD70472E
S21400115038B504460D4603F0C9F929462046FFF780
S214001160F6FF38BD08B5FFF791FD08BD000000008A
S21400117070B58AB0002306930793089309939A4B99
S21400118006939A4906A806F085FD994B186040B369
S2140011900023059305A907F069F90546002840D005
S2140011A0944E954C3146206804F0DEFD00F08CF934
S2140011B000F08BF9914B00937323914A9149206874
S2140011C004F0D2FD904A9149206804F0CDFD2A46ED
S2140011D08F49206804F0C8FD3146206804F0C4FD3D
S2140011E0FEE7844D844C2946206804F0BDFD00F0DF
S2140011F06BF900F06AF9814B00936823804A8149B5
S214001200206804F0B1FD834A8049206804F0ACFDF4
S2140012108149206804F0A8FD2946206804F0A4FD52
S214001220FEE7734C7D4A7E4B1968206807F004F889
S2140012300021206803F026FA064600B36D4D6E4C7A
S2140012402946206804F090FD00F03EF900F03DF9D4
S2140012506A4B009388236A4A6A49206804F084FD32
S214001260694A6A49206804F07FFD32466D49206865
S21400127004F07AFD2946206804F076FDFEE74FF07C
S21400128001115B4B186807F0EAF8054600B3594EA3
S214001290594C3146206804F067FD00F015F900F05F
S2140012A014F9564B00939423554A5649206804F087
S2140012B05BFD554A5549206804F056FD2A465A49B2
S2140012C0206804F051FD3146206804F04DFDFEE72D
S2140012D043A3D3E90023CDE900234FF0FF324FF0BC
S2140012E0FF334349086806F0E7FF064600B3414D62
S2140012F0414C2946206804F037FD00F0E5F800F080
S214001300E4F83E4B00939D233D4A3E49206804F096
S2140013102BFD3D4A3D49206804F026FD32464349F0
S214001320206804F021FD2946206804F01DFDFEE734
S2140013303F4B1B88ADF81030ADF80C3004A92C4B91
S214001340186806F0A1FF064600B32A4D2A4C294627
S214001350206804F009FD00F0B7F800F0B6F8274B57
S2140013600093AD23264A2749206804F0FDFC264A50
S2140013702649206804F0F8FC32462E49206804F01E
S214001380F3FC2946206804F0EFFCFEE703A9184B9F
S214001390186806F08FFF064608B90AB070BD154DEE
S2140013A0154C2946206804F0DFFC00F08DF800F0AC
S2140013B08CF8124B0093B223114A1249206804F0AD
S2140013C0D3FC114A1149206804F0CEFC32461A4973
S2140013D0206804F0C9FC2946206804F0C5FCFEE736
S2140013E018AC0155E203000065110000471100002B
S2140013F024080020BCEA000014110020FCF40000C1
S2140014003CF30000ACE90000ACF30000E4E90000A7
S214001410E0F300005CF3000084F3000051110000CC
S2140014200C0800200CF4000044F400006CF40000EB
S214001430F8F4000098F40000C8F4000082B0054BF1
S214001440019302AB03EB800050F8043C186802B02E
S214001450704700BF2408002008B5FFF789FE08BDC6
S21400146008B5024800F03EFC08BD00BF14F50000B9
S21400147008B5034800F078FD024800F075FD08BD89
S2140014802CF5000044F5000003460B4A107828B1FE
S2140014900A4A12789A4202D2002000E00120084A46
S2140014A012783AB1074A127842FA03F313F0010FA2
S2140014B000D10020704700BF370800203808002001
S2140014C018110020390800207047704708B5084BEF
S2140014D001221A70074B00221A70074B04221A705A
S2140014E0064B1F221A7004F0E3FB054B186008BD7C
S2140014F0370800201811002038080020390800207E
S2140015001411002008B5012304221146184602F0E3
S21400151059F9002008BD08B5FFF7F4FF08BD08B567
S214001520002304221146012002F04CF9002008BDD9
S21400153008B5012304220721022002F043F9002007
S21400154008BD08B501213A2001F02CF8FFF7B5FCDC
S214001550FFF7EEFF00F0F0F908BD08B501213A20CC
S21400156001F020F808BD012907D0022320F07F40B3
S21400157040EAC36040EA827070470323F6E72DE92D
S214001580F04107460E4601F109054FF000084446B3
S2140015900EE0F3B20433D9B206E008F10103414687
S2140015A05FFA83F800E05B21082000F0B5FC013408
S2140015B0AC4224D2002CF6D0012CEAD0022C12D059
S2140015C0032C12D0042C12D0052CE6D0B31DA34257
S2140015D00FD0F31DA3420ED006F10803A3420CD091
S2140015E0A31FF95CE0E7D121DEE78021DCE70021DC
S2140015F0DAE75A21D8E75A21D6E75D21D4E700205A
S214001600BDE8F08100B583B002218DF800100022FD
S2140016100548FFF7A8FF019008216846FFF7AFFFCF
S21400162003B05DF804FB00BF006A180008B5082088
S21400163000F066FCFFF7E6FF08BD00002DE9F0436A
S21400164089B004468846174601AD294E0FCE0FC511
S21400165096E8070085E80700D4F80090254B9945E2
S21400166043D003F5804399453DD04FF0FF356D01DB
S21400167005F1A04505F57035D5F81C6606F004069C
S21400168001213A2000F08EFF0121606800F08AFFF9
S21400169000230422617B207B02F094F800230422BE
S2140016A0617A207A02F08EF8CDF80C80ADF81470CE
S2140016B001238DF8123001A9484602F00BFA237A6E
S2140016C0627A43EA0243C5F83436237B627B43EAF8
S2140016D00243C5F8303646F01806C5F81C660020EA
S2140016E009B0BDE8F0830125C1E70025BFE700BFCC
S2140016F05CF5000000C00550F8B50E4615460768B4
S214001700002407E0315D91FAA1F1090E384602F097
S21400171042FA0134AC42F5D30020F8BD0268936962
S21400172013F0200FFBD0704710B5046802E0204687
S21400173002F01EFAA36913F0800FF8D110BD000066
S214001740014B01221A61704700F0035010B582B0B9
S21400175081B1044604F0E8FF217B49000123019390
S21400176000230093054AB0FBF1F1054804F0C2FFE0
S21400177002B010BD024804F08DFFF9E741170000E3
S2140017801C110020F0B583B005460F4C04F58053BD
S21400179040261E67407B05F05FF90423ADF806304F
S2140017A00A4F02220DF106013846FFF7A5FF38461C
S2140017B0FFF7B4FFA87B05F04FF904F50054266741
S2140017C0002003B0F0BD00BF00C003503C0800205E
S2140017D038B5044601213A2000F0E4FE0022A16854
S2140017E00F48FFF72BFF002304220621022001F0FA
S2140017F0E9FF002304221946184601F0E3FF094DCD
S21400180094E80F0085E80F000121074B1970204669
S214001810FFF79CFF2046FFF7B5FF002038BD00BF4E
S2140018203C0800203C110020381100202DE9F04330
S21400183083B081460D461F460688037903FB06F6ED
S214001840F61002F10108254B40221A67407B05F08E
S21400185003F91FFA88F84FEA08239BB243F0010306
S214001860ADF8063002220DF106011D48FFF744FFD1
S21400187000240AE04FF6FF73ADF8063002220DF1A1
S21400188006011748FFF738FF0134BC4214D232462F
S21400189029461348FFF730FF35447B1EA342E9D0A4
S2140018A008EB040292B2013292B2120292B242F0F5
S2140018B0FF02ADF80620E1E7094C2046FFF72EFFB1
S2140018C099F80E0005F0C8F8064B40221A67204625
S2140018D0FFF72AFF002003B0BDE8F08300D00350D6
S2140018E03C08002000E00350034B1B780BB1034874
S2140018F070470020704700BF381100203C110020C0
S21400190000B585B0054BEC460FCB8CE80F00604663
S214001910FFF75EFF05B05DF804FB00BF78F500003A
S214001920014B10221A61704700E00350014B102251
S2140019301A61704700D00350F0B589B001AC3F4D36
S2140019400FCD0FC495E8070084E8070001213A2070
S21400195000F028FE0121282000F024FE01248DF846
S2140019601240374B0393374F01A9384602F0B2F8BE
S214001970234604220021022001F024FF00232246F1
S2140019802146022001F01EFF2346042202210846BB
S21400199001F018FF234604221146002001F012FF32
S2140019A0294D4FF00213C5F83036A3F58033C5F83D
S2140019B02C360226C5F834661C23C5F81C364FF4B0
S2140019C0487005F049F8FFF7ABFF142005F044F81F
S2140019D0FFF7ACFF232005F03FF8FFF7A1FFB92182
S2140019E0384602F0CCF8FFF7A1FF00231A46194646
S2140019F0304601F0E7FE00231A462146304601F045
S214001A00E1FE234600223146304601F0DBFE234647
S214001A1000220421104601F0D5FE384602F02AF8CE
S214001A200021C5F83016C5F82C16C5F83416C5F8CA
S214001A301C16282000F0B6FD09B0F0BD88F50000A1
S214001A4000127A0000C0055000C00350FEE70000F8
S214001A5008B500F02DF8124A0AE01068516850F8F0
S214001A60230041F82300013391688B42F5D30C32F2
S214001A700C4B9A4201D20023F6E70B4A08E01168A5
S214001A80002041F82300013351688B42F7D3083217
S214001A90064B9A4201D20023F6E7FEF775FB00BF1D
S214001AA088490100944901009449010094490100C5
S214001AB010B4154B154A9A60D3F8882042F4700289
S214001AC0C3F88820124A4FF40041916601F188411C
S214001AD001F500524FF0FF3010664FF6DF7050668B
S214001AE00220C3F8D000BFF34F8FBFF36F8F0948B3
S214001AF00824C0F880414FF44033D36004600B6183
S214001B005DF8044B704700BF00ED00E000000000E9
S214001B100090005000E100E0014B1868704700BFDD
S214001B205008002008B5094B1B6F03F00703022B73
S214001B3004D0032B05D0012B06D0FEE7FFF7ECFF01
S214001B4003E0034B186800E0024808BD0080005020
S214001B5054080020002D310108B5FFF7E3FF054BC0
S214001B601B6FC3F303330133B0FBF3F0024B186073
S214001B7008BD00BF008000504C0800200048704799
S214001B8000B4C404014B1868704700BF5408002016
S214001B9008B5064B1860064B1B6F03F00703032BB4
S214001BA000D008BDFFF7D8FFFBE700BF54080020B1
S214001BB0008000500020704700487047002D31011B
S214001BC04FF4004070474FF47A707047014B186826
S214001BD0704700BF58080020002303607047036862
S214001BE00B6001607047D0B18446C2B1B9B1002025
S214001BF0137883B100B501F1FF3E864506D90CF88F
S214001C00013B013201301378002BF4D100238CF80D
S214001C1000305DF804FB00238CF8003070477047F6
S214001C20034640B1002001E0013301301A781AB1B2
S214001C308842F9D370470020704708B54FF0FF314F
S214001C40FFF7EEFF08BD80B170B50C461546064698
S214001C5022B119B1FFF7F1FF844200D870BD2A46C1
S214001C60211A3044FFF7BFFFF8E77047F0B184460B
S214001C70F1B110B409E004F120030FE02030181A87
S214001C8018D1BCB10CF1010C01319CF800400B4B93
S214001C90E35C03F00303012BEDD023460878074AE4
S214001CA0825C02F00302012AE9D1E7E701207047CF
S214001CB0012070475DF8044B704700BF19480100CB
S214001CC00346064A10680344054A934202D8034A6C
S214001CD0136070474FF0FF30704700BF5C0800206D
S214001CE00080002008B543680BB1984708BD222045
S214001CF0FCE708B543690BB1984708BDFF20FCE731
S214001D0008B50B681A78022A00D108BD08461A7969
S214001D1093F805C002EB4202120106498A5822FADD
S214001D200CF212F0010F0CBF012200221A70FEF70F
S214001D30F9FFEAE714C0035030B583B005460468DF
S214001D4001213A2000F02EFC00230122617920793F
S214001D5001F038FD2379617903EB43031B010F4A39
S214001D60D358CB4013F0010F0CBF01230023237080
S214001D70A379022B02D0002003B030BD00F0A4F9F6
S214001D802A460749607900F0C7F90246617920794A
S214001D9001230193009301F081FCECE714C003508B
S214001DA0011D000003681878704700000268137869
S214001DB0022B11D01379507903EB43031B0113490F
S214001DC0CB58C34003F0010003469179012904D0A3
S214001DD011B980F00100107070475188490089B22F
S214001DE00B4343F47F4343F0C0034FF6E0718B424E
S214001DF005D04FF6DF718B4204D053807047012127
S214001E001170F6E700211170F7E700BF14C0035009
S214001E1008B503681A78022A00D008BD00225A8046
S214001E20FFF78AFFF9E710B582B004682378022B23
S214001E3004D0A379022B03D00223237002B010BD76
S214001E400021607900F058F9617920790023019328
S214001E5000930A4601F022FCEEE7000008B50121D7
S214001E603A2000F09FFB012304220321002001F00A
S214001E70A9FC002001F010FC1A4B0122C3F84424F0
S214001E804FF4607000F0AEFB174BD3F8F02042F032
S214001E900102C3F8F020D3F8FC2042F08072C3F8A9
S214001EA0FC20A3F55D43114A1A6000F5D52000F228
S214001EB0FC40C0080E4BA3FB0030800A01380D4BD7
S214001EC018610222C3F8F0204FF48072C3F804238E
S214001ED04FF06043084AC3F8B02F084AC3F8802E74
S214001EE0002008BD00D0035000ED00E0FF030040D6
S214001EF017916502000004E055CEACC5090001004C
S214001F004FF06041D1F8003E012282401343C1F8F1
S214001F10003E0020704700004FF06043D3F8803E3C
S214001F2013F0010F01D1112070470E4AD2F8FC3091
S214001F3043F08073C2F8FC304FF06043D3F8002EB5
S214001F404FF0010C0CFA00FC42EA0C02C3F8002E1B
S214001F5053F82030002BE8D04FF0604303F82010F1
S214001F600020704700ED00E008B543680068984719
S214001F7008BD08B583680068984708BD08B5C368FB
S214001F800068984708BD08B503690068984708BD0B
S214001F9010B5044601213A2000F004FBA378B3FAFA
S214001FA083F35B0904226178207801F00BFC0020A3
S214001FB010BD837873B90378417801228A4003EB19
S214001FC043031B0103F1A04303F5703342F21001F3
S214001FD05A5070470378417801228A4003EB430346
S214001FE01B0103F1A04303F5703341F210015A5070
S214001FF07047837873B90378417801228A4003EBEF
S21400200043031B0103F1A04303F5703341F21001B3
S2140020105A5070470378417801228A4003EB430305
S2140020201B0103F1A04303F5703342F210015A502E
S21400203070470378417801228A4003EB43031B0173
S21400204003F1A04303F5703343F210015A50704772
S21400205010B401460278407802EB42021201064CA8
S214002060A358C34003F001008B780BB980F0010041
S2140020705DF8044B704700BF10C0035010B504460F
S21400208002E0202007E09047DCB194FAA4F0002894
S214002090F7D0B0FA80F00123834024EA0304094B0A
S2140020A003EB00135A68002AEED0064B03EB00132E
S2140020B01B7B002BE7D0034B03EB0013996890477C
S2140020C0E2E710BD4C11002008B5192001F04CF8CD
S2140020D028B1084B4FF00072C3F880211A601A200E
S2140020E001F042F828B1034B4FF08062C3F880211C
S2140020F01A6008BD00E100E038B505460C4601F060
S2140021002AF8044B03EB05135C6000221A7301F0F7
S21400211028F838BD4C110020F8B505460F4616467F
S21400212001F019F805F0FC0C104BD3F8241400232A
S214002130032B0CD8EC1804F0030444EA0C0421FA30
S21400214004F212F0010F03D00133DBB2F0E7FF24F4
S214002150FF2C06D0064B03EB04135F609E60012243
S2140021601A7300F0FEFF2046F8BD00BF00C0035003
S2140021704C11002008B5084BD3F82404D3F82024CB
S214002180104000F0553020F0502003F50053C3F8FF
S2140021902004FFF773FF08BD00C0035008B5084BC6
S2140021A0D3F82404D3F82024104000F0AA3020F0FE
S2140021B0A02003F50053C3F82004FFF75FFF08BD17
S2140021C000C00350024B4FF480321A67704700BFBE
S2140021D00090005038B505460C46FFF7A3FC05B145
S2140021E028600CB10D23236038BD000038B50546C5
S2140021F00C460F4BD3F8203103F00303022B0ED00E
S214002200032B10D0012B06D00023184605B12860FA
S21400221004B1236038BDFFF77FFC0523F6E7FFF720
S214002220B1FC0323F2E7FFF7C7FC0223EEE700BF8B
S2140022300080005070B582B006460D46002301931C
S2140022400D4BD3F8804104F00304012C09D0022C76
S2140022500DD000240EB1019B336005B12C6002B096
S21400226070BD002101A8FFF7C1FF0F24F2E7FFF7BA
S214002270A3FC0190EEE700BF0080005038B505468D
S2140022800C46164BD3F8243103F00703013B052B0D
S21400229020D8DFE803F0030F171B0B13FFF73CFCF7
S2140022A0052305B1286004B1236038BDFFF734FC70
S2140022B00623F6E7FFF766FC0323F2E7FFF762FC68
S2140022C00423EEE7FFF778FC0223EAE7FFF772FC49
S2140022D00723E6E700231846E3E700BF0080005028
S2140022E038B505460C46104BD3F8000100F0030045
S2140022F0032815D8DFE800F002080C10012305B10A
S214002300286004B1236038BDFFF73CFC0323F6E7E2
S214002310FFF75CFC0823F2E7FFF74CFC0723EEE729
S21400232000231846EBE700BF0080005038B505468E
S2140023300C460F4BD3F8403103F00303022B0ED0AC
S214002340032B10D0012B06D00023184605B12860B9
S21400235004B1236038BDFFF733FC0923F6E7FFF727
S21400236035FC0823F2E7FFF72EFC0B23EEE700BF51
S2140023700080005008B50B4BD3F8203203F003035F
S214002380012B08D0022B09D008B10023036021B12D
S21400239000230B6001E0FFF729FF08BDFFF7C6FF2B
S2140023A0FBE700BF0080005030B583B005460C4602
S2140023B0002301934FF0E0231B6913F0040F0CD0A9
S2140023C0FFF7CAFB01900C2300930DB1019B2B6015
S2140023D00CB1009B236003B030BD694601A8FFF72F
S2140023E0A5FFF2E738B505460C46124BD3F8003287
S2140023F003F00703013B032B18D8DFE803F0020ABB
S2140024000E12FFF7DDFB092305B1286004B1236037
S21400241038BDFFF7DBFB0823F6E7FFF7D4FB0B23FB
S214002420F2E7FFF799FB800A0E23EDE70023184634
S214002430EAE700BF0080005038B505460C460F4B53
S214002440D3F8403203F00303022B0ED0032B10D038
S214002450012B06D00023184605B1286004B123607E
S21400246038BDFFF7ADFB0923F6E7FFF7AFFB082300
S214002470F2E7FFF7A8FB0B23EEE700BF0080005053
S21400248038B505460C460F4BD3F8603103F003030E
S214002490022B0ED0032B10D0012B06D0002318469B
S2140024A005B1286004B1236038BDFFF789FB092316
S2140024B0F6E7FFF78BFB0823F2E7FFF784FB0B2317
S2140024C0EEE700BF00800050B0F5207F20D00ED889
S2140024D0B0F5007F16D020D810B1B0F5C07F04D17B
S2140024E00F4B186FC0F3033018E0002016E0B0F56D
S2140024F0607F05D10A4BD3F88000C0F301100DE0D1
S21400250000200BE0064BD3F89000C0F3046005E013
S214002510034B186FC0F3802000E0002001307047A6
S2140025200080005038B505460C46174B4FF4003275
S2140025309A660020FFF7C8FF05FB00F0134BDA6928
S21400254002F4803241F67131D9639B6823F440135C
S2140025506CB90F49884207D800210B430B498B60A2
S2140025600AB10022CA6338BD4FF48011F5E7002C8B
S21400257007DD0749884201D80021EEE74FF48011B5
S214002580EBE74FF44011E8E70090005000000350DE
S214002590005A620208B5FFF7F1FA0021FFF7C2FF02
S2140025A008BD0000430907D0012B10D0022B01D034
S2140025B0094A02E0094A00E0002200F01F0041B18B
S2140025C002F58052012303FA00F010607047044AB7
S2140025D0F3E702F50052F5E760820050688000508D
S2140025E06480005010B582B0002301930093B0F5CC
S2140025F0807F00F2EF802028C0F0E7802038E028B7
S21400260000F2E580DFE810F02C011E012C011E010F
S21400261033013301330133011E011E0160014F01F6
S2140026203E016A014F011E011E011E01E300E30088
S214002630E300E300E300E30046015B011E011E0128
S2140026401E01F4006F011E01E300E300E300E30057
S214002650E300E300E300E300E300E300E300E3005D
S214002660E3002C01E3002C012C012C013301E300D4
S214002670E300E300E300E300E300E300E300E3003D
S214002680E300E300E300E3002C012C01E300E30099
S214002690E300E300E300E300E300E300E300E3001D
S2140026A0E300E300E300E300E300E300E300E3000D
S2140026B0E300E300E300E300E300E300E300E300FD
S2140026C0E300E300E300E3004B01E300E300E30084
S2140026D0E300E300E300E300E300E300E300E300DD
S2140026E0E300E300E300E300E300E300E300E300CD
S2140026F0E300E300E300E300E300E300E300E300BD
S214002700E300E300E300E300E300E300E300E300AC
S214002710E300E300E300E300E300E300E300E3009C
S214002720E300E300E300E300E300E300E300E3008C
S214002730E300E300E300E300E300E300E300E3007C
S214002740E300E300E300E300E300E300E300E3006C
S214002750E300E300E300E300E300E300E300E3005C
S214002760E300E300E300E300E300E300E300E3004C
S214002770E300E300E300E300E300E300E300E3003C
S214002780E300E300E300E300E300E300E300E3002C
S214002790E300E300E300E300E300E300E300E3001C
S2140027A0E300E300E300E300E300E300E300E3000C
S2140027B0E300E300E300E300E300E300E300E300FC
S2140027C0E300E300E300E3006501002848D0019839
S2140027D002B010BDB0F5906F71D00ED9B0F5D06FC5
S2140027E07CD049D9B0F5E06F7DD0B0F5F06FEED172
S2140027F0002101A8FFF744FEE9E7B0F5407F52D07C
S2140028000FD9B0F5607F2FD100216846FFF7E2FCB4
S214002810009C4FF46070FFF757FEB4FBF0F4019491
S214002820D5E7B0F5007F0AD1FFF77CF904464FF4F0
S2140028300070FFF749FEB4FBF0F40194C7E7B0F56B
S214002840207F0AD1FFF788F904464FF42070FFF77F
S2140028503BFEB4FBF0F40194B9E7B0F5C07FB6D107
S214002860FFF77AF90190B2E7B0F5806FAFD100219B
S21400287001A8FFF7BBFCAAE7B0F5B06F24D0B0F50F
S214002880C06F04D1002101A8FFF750FD9FE7B0F507
S214002890A06F9CD1002101A8FFF76CFD97E7FFF71A
S2140028A041F9019093E7FFF757F904464FF420707B
S2140028B0FFF70AFEB4FBF0F46408019487E70021F2
S2140028C001A8FFF7DBFC82E7002101A8FFF7B2FCB6
S2140028D07DE7002101A8FFF767FD78E7002101A842
S2140028E0FFF780FD73E7002101A8FFF7A5FD6EE75F
S2140028F008B58020FFF776FE034B984203D8034BBB
S2140029004FF480321A6708BD005A620200A00050D9
S21400291000B583B000230193B0F5807F7CD00FD93B
S214002920B0F5D06F7DD039D9B0F5006F4BD04FD908
S214002930B0F5086F67D101A90020FFF7D1FC62E06F
S21400294052281ED824285ED324382E285BD8DFE8E9
S21400295000F05E5E5E5E5A5A565A2F685A5A5A5AA7
S2140029605A5A5A5A5A5A6D5A5A5A5A45725A5A5AAC
S2140029705A5A5A5A5A5A5A5A5A5A5A5A5A5A5A5AB2
S2140029805E0080283FD12E4B1B6F03F00703013BF0
S214002990032B38D8DFE803F030272A2DB0F5A06FD8
S2140029A044D00AD9B0F5B06F29D0B0F5C06F2AD19F
S2140029B001A90020FFF7BAFC25E0B0F5806F26D00D
S2140029C0B0F5906F1FD101A90020FFF757FC1AE061
S2140029D0B0F5E06F2FD0B0F5F06F14D101A900204C
S2140029E0FFF74EFD0FE0052301930CE00323019350
S2140029F009E00723019306E00223019303E001A9FF
S214002A000020FFF717FC019803B05DF804FB01A94E
S214002A100020FFF7EBFBF6E701A90020FFF7C4FC58
S214002A20F1E701A90020FFF7DDFCECE701A9002093
S214002A30FFF7A0FCE7E701A90020FFF7FDFCE2E7AF
S214002A400080005010B504468020FFF761FF032881
S214002A5000F09D804E4B4FF400225A6603F540531B
S214002A6045F60E02C3F8802003F5805202219162DB
S214002A7003F5005301229A62464B9B6D13F4803F88
S214002A80FAD1226863681B0543EA0263227B43EAA5
S214002A900243627B43EA0233A27B43EA8213E27B71
S214002AA013433C4A1361936903F00043216943EAE8
S214002AB08163616943EA0163217E43EA0143617EE3
S214002AC043EA0123A17E0B439361136A23F00D03AF
S214002AD0E269002A42D111460B43E17E43EA8103B4
S214002AE013432C4A1362E369002B39D1936A23F00F
S214002AF0330394F8201043EA411394F8211043EA74
S214002B00011343F001039362224B9A6D224B9343C9
S214002B10FAD1204B03F5805102228A621A651D4BBA
S214002B209B6D13F0804FFAD11A4B1A6922F470028B
S214002B30A16842EA01521A6103F580534FF0004241
S214002B409A6194F8223013B9144B02229A6294F8D0
S214002B502330ABB9114B01229A6211E00821BBE782
S214002B600C4A936A23F0330394F8201043EA411387
S214002B7094F8221043EA410394F823100B4393621F
S214002B8094F824301BB1034B054AC3F8802010BDCF
S214002B900090005000C000500300014000E00050CC
S214002BA0F1A7FFFF014B93F9000070474C1300207C
S214002BB010B443784F2B28BF4F231A461C4B4FF4B4
S214002BC08001596603F5B8334FF4D151596203F5C5
S214002BD0805102244C6003F5005301215960154BC7
S214002BE01B6913F4803FFAD1037842EA0323114AA3
S214002BF05361416883681B0143EA0123017B43EA72
S214002C004103417B0B439360817BC37B1B0143EAFB
S214002C104113017C43EA4103417C0B435360837CB0
S214002C201BB113466FF4D1525A625DF8044B7047DD
S214002C300090005000000250014B1880704700BF03
S214002C406008002008B5002903DD0121FFF76AFCB3
S214002C5008BD0021FFF766FCFAE70000B0F5207F0C
S214002C6048D02DD8B0F5007F39D04CD810B1B0F58B
S214002C70C07F24D110B54C1EFFF78CFC00F048F83E
S214002C80FFF7A0FA204B196F21F4704141EA043196
S214002C901967FEF761FF1D4BD3F8843013F0100F51
S214002CA0F9D11A4BD3F88410C1F38111C1F1020196
S214002CB0FFF7C8FF00F034F8FFF71AFE10BD7047A4
S214002CC0B0F5607F0AD101390F4AD2F8803023F080
S214002CD0300343EA0111C2F880107047704701398B
S214002CE0094AD2F8903023F0F85343EA0161C2F85B
S214002CF0901070470139044A136F23F4806343EA47
S214002D0081211167704770470080005000400050D6
S214002D1008B502214FF42070FFF7A0FF08BD0000A1
S214002D2008B54FF4C070FFF75DFC054B984205D917
S214002D3002214FF42070FFF791FF08BD0121F8E74C
S214002D4080F0FA0270B50C46B0F5807F00F0258161
S214002D5021D9B0F5D06F00F0A38161D9B0F5006F2E
S214002D6000F0858040F28F80B0F5086F40F0FC8060
S214002D70072900F0B281082900F0B181032900F08C
S214002D80AA8100219E4AD2F8003123F003030B43A8
S214002D90C2F80031E8E0522837D82428C0F0E48092
S214002DA024382E2800F2E080DFE810F0E100E10091
S214002DB0E100E100DE00DE00D100DE0047007A011F
S214002DC0DE00DE00DE00DE00DE00DE00DE00DE000E
S214002DD0DE00DE009B01DE00DE00DE00DE007400AA
S214002DE0AD01DE00DE00DE00DE00DE00DE00DE001E
S214002DF0DE00DE00DE00DE00DE00DE00DE00DE00DE
S214002E00DE00DE00DE00DE00E100802840F0AC8060
S214002E108B1E052B51D8DFE803F094825097509113
S214002E20B0F5A06F00F05D811AD9B0F5B06F00F074
S214002E308E80B0F5C06F40F097800A2C00F20681B5
S214002E40092C80F00781082C40F0068102226C498C
S214002E50D1F8403123F003031343C1F8403183E037
S214002E60B0F5806F00F08380B0F5906F7CD1023CA7
S214002E70052C00F2FF80DFE814F00101FF000701D7
S214002E80090105010301B0F5E06F00F03C81B0F5E3
S214002E90F06F69D10A2C00F2E380092C80F0E48000
S214002EA0082C40F0E38002225549D1F8603123F027
S214002EB003031343C1F8603156E000252E46012176
S214002EC0022000F06DF9FFF765FBFFF721FFFFF723
S214002ED079F94B4A136F23F0070333431367FEF762
S214002EE03BFE484BD3F8843013F0100FF9D1454B16
S214002EF0D3F88410C1F38111C1F10201FFF7A2FEDD
S214002F000121002000F092F9FFF70AFFFFF7F0FC1E
S214002F1055BB032C28D13C4B01229A6224E03B4B44
S214002F204FF400225A6603F540539D6AC5F34005E8
S214002F3003F5805301229A620E46C0E70025042658
S214002F40BDE700250126BAE700250226B7E7022CD2
S214002F5002D00F2C09D10124294BD3F8801121F07F
S214002F6003010C43C3F8804170BD0024F4E7032C32
S214002F700FD0052C0FD0022C09D00021204AD2F801
S214002F80203123F003030B43C2F82031ECE7032182
S214002F90F4E70221F2E70121F0E7A1F10804082C8A
S214002FA0E2D801A353F824F0CD2F0000CD2F000067
S214002FB0692F0000CD2F000019300000692F000097
S214002FC0692F0000692F0000CD2F00000C4B596EB2
S214002FD003F580534FF480325A660D4A136A43F065
S214002FE00103136211F4803F03D10A4B4FF4803281
S214002FF05A664FF0E022136923F004031361B3E727
S214003000008000500040005000E00050009000504B
S21400301000C0075000A00050484B596E03F580537F
S2140030204FF480325A66464A136A23F0010313624D
S21400303011F4803F03D1434B4FF480325A664FF071
S214003040E022136943F0040313618DE70B2C05D1CE
S2140030500322FCE60122FAE60022F8E60022F6E663
S2140030600B2C05D103221FE701221DE700221BE7D8
S214003070002219E700210AE0022108E0032106E009
S214003080042104E0052102E0062100E001212B4A8C
S214003090D2F8243123F007030B43C2F8243163E748
S2140030A0083C062C05D8DFE804F0060C0C080404DF
S2140030B00A00002106E0022104E0032102E00421C8
S2140030C000E001211D4AD2F8003223F007030B432B
S2140030D0C2F8003248E7012154E6032152E60221F5
S2140030E050E60F2C0BD0102C0BD10221134AD2F82D
S2140030F0203223F003030B43C2F8203234E70121C9
S214003100F4E70021F2E70A2C0DD8092C0FD2082C80
S2140031100FD102220949D1F8403223F003031343AA
S214003120C1F8403220E70B2C05D10322F2E701223A
S214003130F0E70022EEE70022ECE700BF0080005038
S21400314000C0075000A00050EFF3108072B6704722
S21400315000B962B67047EFF31180302383F311880D
S214003160704780F3118870474209064B53F82230A7
S21400317000F01F0023FA00F080F0010000F00100CC
S214003180704700BF00E100E0034AD36E23F030032F
S21400319001790B43D366704700400050704700002B
S2140031A0F8B50446204BD3F8843013F0100FF9D14D
S2140031B01D4BD3F88430C3F381139C422DD0FEF709
S2140031C0B1FC0646012C11D0FFF7BEFF0546164F90
S2140031D007F500534FF000725A662046FFF7DEFFF1
S2140031E0621E4FF4806393403B6706E00121FFF7C1
S2140031F029FDE9E70C4BD3F884300B4B5B6E13F0DC
S214003200007F05D1084BD3F8843013F0200FF1D09F
S2140032102846FFF79DFF022C00D0F8BD002130465F
S214003220FFF710FDF9E700BF0040005010B50C4650
S214003230034650B1094A127812B1094A934208D996
S21400324021460220FFF7ACFF10BDFEF76BFC0346DD
S214003250F0E721460120FFF7A3FFF5E75013002013
S214003260005A620208B51D4B4FF000425A6603F53D
S2140032700B2303F58052012151605A6C0A404AF62E
S214003280CD311964A8B99B6813F0010F07D0144B11
S21400329001219960134BDB6A13F0010FFAD0104B33
S2140032A00121596012B10F4B0F4A1A6405F013F84A
S2140032B008BD0C4BDB6A13F0080FFAD1094B03F577
S2140032C000512020486203F5805301219960054B88
S2140032D05B6A13F0200FFAD0E4E700BF00900050BE
S2140032E000600950004009503254FFFF10B51B4BD8
S2140032F04FF000425A661A4A02F58053012159607F
S214003300546C0C404AF6CD33136443788B400B4321
S2140033101449CB63936823F07403827843EA02135C
S214003320C278C2B1042213430D4A936001798379AF
S21400333043EA012313614179C37943EA01235361C8
S2140033400078FFF78FFF14B1054B074A1A6404F0A4
S214003350C2FF012010BD0022E5E700BF009000502C
S21400336000400950004000503254FFFF034B984283
S21400337001D0002070473820704700BF0000035A75
S214003380436813F0010F19D00A230363C36C13F0CC
S214003390500FFBD1036C13F0030FFBD1836A8362DB
S2140033A0C36C13F0010FFBD100E0436B036C13F00A
S2140033B0800FFAD100F5005301225A600023C36043
S2140033C0836041F202020261C3614361836103626A
S2140033D04362C362836400F500520249516483620B
S2140033E0704700BF7F370C010A46F1B100F58053E5
S2140033F00121596002F00F01C36CC3F30A03002BCE
S214003400FAD10163C36C13F07803FBD112F0010FFD
S21400341000D0012312F0040F01D043F00203026C27
S21400342002F003029A42FAD17047436813F0010F84
S214003430FAD00A230363C36C13F0500FFBD1036C5E
S21400344013F0030FFBD1836A8362C36C13F0010F82
S214003450FBD100E0436B036C13F0800FFAD100F54C
S2140034600050012343607047036C13F0800FFBD0BD
S214003470406BC0B27047036C13F0400FFBD0C163C3
S2140034807047000038B5044615460846F1B1636833
S214003490A36803F0E003402B23D01DD9602B24D073
S2140034A0802B12D10123400105FB03F3B0FBF3F0A0
S2140034B020380F4B03EAC000E36C13F0010FFBD17A
S2140034C0A062E36C13F0010FFBD138BD2046FFF776
S2140034D04DFFFFF787F8DAE72BB1202BF5D108234D
S2140034E0E1E70623DFE71023DDE70423DBE700BF81
S2140034F0F8FF7F0070B504460D461646436823B1B4
S214003500E36CC3F30A03002BFAD12046FFF738FF1B
S214003510236923F44C5323F003036A7B1343EA899D
S21400352013432A8A13432361A36823F0804323F0BE
S214003530E2032A7B13432A7E13436A691343A3607C
S214003540AB681BB9A36843F00043A360EA69002A8E
S2140035505ED0A368127A43EA8253A360A368EA693E
S214003560927A43EA4243A360A368EA69928802F427
S214003570C0421343A360A368EA69527843EA820311
S214003580A360A368EA69527B43EAC203A360A36808
S214003590EA69927B43EA0213A360A368EA69927819
S2140035A043EA8223A360EA699179D3795B0243EA0E
S2140035B08123E360EB691B78012B01D0032B03D139
S2140035C0E36843F00403E360EB691B78023BDBB27D
S2140035D0012B35D9274B0122C3F8C020EB695A7A54
S2140035E004F580531A62EB695B7A1BB1E36843F417
S2140035F00063E360EB69DB7A53B1E36843F40043AE
S214003600E360EB691B7B03F00F031B4AC2F88030B4
S21400361036B196F82030C3B104F5805301229A6182
S21400362005212046FFF7E0FEAA68EAB92978204679
S214003630FFF7DAFE236CDB4313F4405FFAD170BD6C
S2140036400E4B0122C3F8C020C8E7636923F00903C4
S21400365096F82220134396F82120134343F00103E3
S21400366004F580525361DBE769682046FFF70AFFDE
S214003670DCE700BF00E403500090035000D4035082
S21400368008B500231A46FFF735FF08BD08B5002326
S2140036901A46FFF72FFF08BD704700002DE9F84FC8
S2140036A00C4615461E469DF828809DF82C70072A65
S2140036B044D84FEA8209032303FA09FA00FA09F903
S2140036C0FFF742FD384AD2F8001489EA010303EAFC
S2140036D00A034B40C2F80034FFF73AFD4FF0000AE9
S2140036E0072D43D8A9004FF0030909FA01F904F0A1
S2140036F003048C40FFF728FD2B4BD3F808245440D6
S21400370004EA09045440C3F80844FFF721FD002EDC
S21400371044D0264A0123AB401360B8F1000F3FD0D7
S214003720234A1360012202FA05F5224AC2F8205401
S214003730C7B3A2F6DC321360BDE8F88FA2F1080A20
S2140037404FEA8A09032303FA09FB00FA09F9FFF78F
S214003750FBFC154AD2F8041489EA010303EA0B03BA
S2140037604B40C2F80434FFF7F3FCB9E74FEA8A0A85
S2140037704FF0030909FA0AF904F0030404FA0AF4FC
S214003780FFF7E2FC084BD3F80C24544004EA090483
S2140037905440C3F80C44FFF7DBFCB8E7064AB9E729
S2140037A0064ABEE7064AC6E700C0035010D40350D8
S2140037B014D4035000E0035010E4035014E4035004
S2140037C024E403502DE9F04704460E461F46904673
S2140037D062B1D3B301228A4000EB40031B0103F120
S2140037E0A04303F5703341F210015A50072E39D822
S2140037F004EB44031B01DFF8C4909944B3004FF078
S2140038000F0A0AFA03FA08FA03F5FFF79DFCD9F83F
S214003810002085EA020303EA0A035340C9F8003091
S214003820FFF796FCB8F1000F0DD1C7B3012101FADE
S21400383006F604EB4404240104F1A04404F57034B5
S21400384041F21003E650BDE8F08701228A4000EB03
S21400385040031B0103F1A04303F5703342F210014D
S2140038605A50C3E704EB44031B01DFF85490994415
S214003870A6F1080292004FF00F0A0AFA02FA08FAB6
S21400388002F5FFF761FCD9F8003085EA030202EA88
S2140038900A025A40C9F80020FFF75AFCC2E7012185
S2140038A001FA06F604EB4404240104F1A04404F5EE
S2140038B0703442F21003E650C5E700BF04C0035060
S2140038C00CC003500B784A7843EA8203CA7843EA6E
S2140038D042130A7943EA021300EB4002920002F117
S2140038E0B04213630B78012B00D070478A78024BE6
S2140038F043F82020F9E700BFE88003504FF0B043BC
S2140039005B680BB9002837D04FF0B0435B6843B113
S2140039104FF0B0435B6823B14FF0B0439B6A002B77
S214003920F6D180B1154B01225A604FF0B0435B6868
S21400393023B14FF0B0439B6A002BF6D14FF0B04353
S2140039400122DA6070474FF0B0435B6823B14FF056
S214003950B0439B6A002BF6D14FF0B0430222DA60E8
S2140039604FF0B0435B6823B14FF0B0439B6A002B27
S214003970F6D1034B01225A60704700BF0010005872
S214003980002000584FF0B0435B6843B14FF0B0439F
S2140039905B6823B14FF0B0439B6A002BF6D1154B02
S2140039A001225A604378E3B113468278DAB10222E4
S2140039B01343C278CAB104221343027943EA0213BE
S2140039C0427943EAC2034FF0B042936002F5805258
S2140039D001235360037853B101224FF0B043DA60FD
S2140039E070470023E1E70022E2E70022E4E7022234
S2140039F0F3E700BF00200058074B4FF480325A66AA
S214003A0003F5E6235B69C3F38512827003F03F0279
S214003A1042701B0B03707047009000500A4B984290
S214003A2007D00A4B984209D0C36D43F08003C365A4
S214003A307047A3F51033C3F88C11F5E7A3F52033D0
S214003A40C3F89C11F0E700BF00C005500000065008
S214003A5038B5054614460B4631B1013B6400B3FB4E
S214003A60F4F31B02EB6138BD4FF42070FEF7BAFD8D
S214003A700346F2E700F5805301225A6040F6AA6337
S214003A80436100238360C36541F20502C26003619F
S214003A90C361C36400F500520C49916483650C4B06
S214003AA0984203D003F58043984201D10023036572
S214003AB0074B984203D003F58043984201D1002378
S214003AC0436500F50050012343607047FFFF010087
S214003AD000C0055038B505460C46FFF7CBFF05F588
S214003AE0805301225A60AA68238A43F00103A17B0F
S214003AF0002934D04FF480610B431343AB60AB68AE
S214003B00227D002A2DD04FF000521343AB60A37CD9
S214003B104BBB237B43F48053EB60A2686168284666
S214003B20FFF796FF637B0BB110236B61637D1BB1C0
S214003B30AB6843F48033AB60A37D1BB1AB6843F442
S214003B400043AB60E37D1B0703F0E043227E1205D3
S214003B5002F4E0021343AB6523786B6138BD0021A5
S214003B60CAE70022D1E7E17C2846FFF757FFD0E7F7
S214003B70836913F0800FFBD0406AC0B27047836938
S214003B8013F0400FFBD0C163836913F0200FFBD006
S214003B90406AC0B27047836913F0400FFBD0C16320
S214003BA070470000411100F01F00012303FA00F0E7
S214003BB0034A52F82130034342F82130704700BFD1
S214003BC060130020044B1B681BB1044B03600020ED
S214003BD070470120704700BF701B00205413002060
S214003BE010B4124C2468B4B100EB020C104C2488BC
S214003BF0A44512DC01EB030C0D4C6488A4450EDCD6
S214003C007AB183B10A4CA080E180228163810020D2
S214003C105DF8044B70470120FAE70420F8E704201B
S214003C20F6E70520F4E70520F2E700BF701B00204A
S214003C30541300202DE9F04F83B09B46474B1B687A
S214003C40002B00F084800246454BDD88B3F80AA0BE
S214003C50AA441FFA8AFA0D44ADB20D9E14E05F46E0
S214003C6028E0C70800F00701012202FA01F1DA5D38
S214003C700A43DA55013080B2A042F2D34046FFF73D
S214003C8091FF0135ADB20022002E63D0554560D2BB
S214003C90334B1C89A41AB44228BF3446361B988876
S214003CA0104480B2A8462F4B03EB0513BBF1000F60
S214003CB0D5D0FF27072C12D80444002FDCD10BE008
S214003CC0C70800F00701012202FA01F1DA5D22EAD4
S214003CD00102DA55013080B2A042F1D3CEE7C10826
S214003CE003EBD00910F0070013D001228240D2B2B5
S214003CF002F1FF3C13F801E052423A4052B20CEA9D
S214003D000E0C42EA0C025A5409F101092044A0F1B3
S214003D100804E308019310D1002CAFD0012303FA66
S214003D2004F4E4B2621E99F9003064421C4064B2A6
S214003D301740274389F80070A0E71A4639464846D8
S214003D4009F08FFF04F00704019B9944E4E701267D
S214003D5000E00426304603B0BDE8F08F701B00205C
S214003D60541300207013002010B582B0134B1B684C
S214003D701BB10024204602B010BDFDF7C1FD04466D
S214003D8008B10124F6E7FDF7AFFD0C4B186098B1BB
S214003D9002880B4B1A804188598000209880D88072
S214003DA01A81598101FB02F20192009003460246F5
S214003DB00146FFF73FFFDDE70124DBE7701B00202D
S214003DC05413002070B51C4B1C68012600231A46AD
S214003DD00FE00BB9013216E0184901EB0211FDF7AE
S214003DE025FD034618BB6A1C0DE0134951F8264012
S214003DF00136D5181249086841888D4209D214F058
S214003E00010FE6D00133D11811F01F0FEDD0640872
S214003E10EFE72BB1094901EB0211FDF707FD40B9A9
S214003E20054B0020186058609860D86070BD072069
S214003E30FCE70720FAE700BF60130020701300209D
S214003E40701B002040B108B5026853881288002114
S214003E500846FFF7C5FE08BD0520704780B108B5C7
S214003E6003468089198A5A69121A92B29B695B1AAC
S214003E709BB2013301329BB292B2FFF7B1FE08BD8E
S214003E800520704740B3844641B30B688A68934266
S214003E9026DA4868C968884224DA002B24DB002822
S214003EA024DB10B584B0DCF80040B4F800E07245BE
S214003EB01EDA6488A1421DDA0093019002920391F3
S214003EC00CF10C0404AB13E90F0084E80F00604605
S214003ED0FFF7C4FF04B010BD0520704705207047EB
S214003EE00420704704207047032070470320704763
S214003EF00320EFE70320EDE730B587B020B3044694
S214003F00002343606FF07F43836005A8FFF75AFEE7
S214003F10054610B1284607B030BD059B2360002239
S214003F20019202921A88013A03925B88013B04933D
S214003F3001A92046FFF7A6FF05460028EAD1034957
S214003F40204600F06AF9E5E70525E3E7D4F8000027
S214003F504FEA104C81F800C0010A117018707047C3
S214003F6018B310B584B004460DF10D030DF10E0222
S214003F700DF10F014068FFF7EBFF2046FFF762FFE9
S214003F8008B104B010BD22681389528902FB03F3FE
S214003F9001939DF80D3000939DF80E309DF80F208C
S214003FA000210846FFF746FEEBE705207047C8B13C
S214003FB070B582B00C46154606460C3000F030F858
S214003FC010B9012002B070BDB268D3B201210191D0
S214003FD00093C2F30723C2F30742A9B2A0B2FFF7C9
S214003FE029FEEFE705207047C0B170B582B00C46D9
S214003FF015461E460C3000F013F810B9012002B02A
S21400400070BDF3B2012201920093C6F30723C6F3F4
S2140040100742A9B2A0B2FFF70DFEF0E705207047F1
S214004020034668B1006888420CDC986888420BDB5F
S214004030596891420ADCDB68934209DB012070472D
S214004040002070470020704700207047002070470F
S214004050002070472DE9F04F83B09DF8307000289F
S21400406000F0918091469A460546A1F12003DBB206
S2140040705E2B00F28A8090F82830022B1BD0203965
S2140040808BB200932B8C009A934240F28280EB69AD
S21400409001934FF0000BD84695F8253043456ED96E
S2140040A095F82230012B14D0022B17D0019B009AD2
S2140040B053F8226010E0A1F130039BB200933A2936
S2140040C004D02029DED10B230093DBE70A230093DC
S2140040D0F7E7019B009A9E5C002413E0019B009A80
S2140040E033F81260F8E708EB0A0204EB09012846E9
S2140040F0FFF75DFF012849D808B90BF1010B7608D8
S2140041000134A4B295F82430A34215D916F0010F55
S214004110E9D1002FF3D06B6808EB0A0204EB090123
S2140041202846FFF761FF012830D80028E7D10BF1B9
S214004130010BE4E70134A4B2214695F8243095F843
S214004140272013449C420FDA002FF3D06B6808EB4D
S2140041500A0249442846FFF747FF012816D80028D8
S214004160E8D10BF1010BE5E795F82330009A1344EC
S2140041709BB2009308F101081FFA88F88CE7BBFA97
S2140041808BF0400902E0052000E0022003B0BDE805
S214004190F08F0220FAE72DE9F04F85B003930E9ECC
S2140041A09DF83CA098B3884691461F46054681B3C5
S2140041B090F828307BB30024A3460EE095F825300F
S2140041C01E4495F826301E44039F05E095F82430DB
S2140041D095F8272013441F4401344C4511D218F893
S2140041E004100A29EAD0CDF800A033463A462846FD
S2140041F0FFF730FF012807D80028E7D10BF1010BA5
S214004200E4E7BBFA8BF0400905B0BDE8F08F052067
S214004210FAE70520F8E70220F6E7C0B1034679B1D1
S21400422000B5D1F800E0D1F804C08868CA68C3F8C1
S2140042301CE0C3F820C058629A6200205DF804FBB8
S2140042400022C26102624262826205207047052037
S2140042507047F0B583B004460D4617461E4608461E
S21400426009F0D6FD024694F8243000FB03FC94F8CF
S214004270251094F826000844099900FB0711012E22
S2140042800ED0022E12D000239DF828000190009137
S21400429008990B4429462046FFF77DFF03B0F0BD82
S2140042A023681B88A3EB0C035B08EDE723681B88D9
S2140042B0A3EB0C03E8E7000038B5044604F01EF84C
S2140042C0054DA446BCE80F000FC59CE8030085E832
S2140042D00300002038BD00BF741B002047F6FF73A4
S2140042E09A4275D0022975D870B53C4B03EBC100D5
S2140042F090F802C0604613F83130012B22D0374BBD
S21400430003EBC1035C68002C66D0B4F900509542FC
S21400431004DBB4F90250954200DC1546A388FF2B57
S2140043202BD02826C8230022AE465B1B93FBF6F351
S21400433013442A4A02EBC1014D78691E994231D3D3
S21400434019462FE0254B03EBC103D878A0EB0C00F1
S2140043500025A8420ED9431BA0EB53031F4C04EBC9
S214004360C104646834F91340944201DC1D46F0E74A
S214004370581EEEE76044C0B229E0B4F90630B4F93E
S21400438008600122D0E703F5FA73154AA2FB03235F
S2140043909B094A1C954210D904EBC206B6889E4279
S2140043A00BD3114604EBC1029368B2F9062002FB58
S2140043B00E33002BE7DA0023E5E704EBC1018A8819
S2140043C09A4200D31A46624500D31046C0B270BD6A
S2140043D0FF207047002070470020F8E7741B00207D
S2140043E0D34D621002296DD8394B13F83130012BAA
S2140043F023D010B5364B03EBC1035C68002C63D0AA
S21400440014F1040C62D0324B03EBC1039B78934249
S2140044102BD22F4B03EBC103DB78934228D92C4BCE
S21400442003EBC10191F801E00EF1FF3E5FFA8EFE4C
S214004430A388FF2B1FD0002321E0254B03EBC103ED
S214004440DB78934200D21A46214800EBC100807800
S214004450121AD2B21B1A9A4200DD00221C4B03EB42
S214004460C1014B6833F912007047B4F9020010BD61
S214004470B4F90000FBE7012301E00133DBB273452A
S21400448005D2591C3CF8310091B28842F5D24FF45F
S2140044907A7101FB02F20CEBC30CDCF80430D31A81
S2140044A0BCF9022002EBD27103EB610393FBF2F33B
S2140044B0B4F900009842DADBB4F902009842D6DC80
S2140044C018B2D4E7034870470248D0E70148CEE761
S2140044D0741B00200080FFFF08B50348FFF7ECFEC2
S2140044E0012003F047FF08BD04FC000030B583B090
S2140044F0044603F041FF08B103B030BD69462046CC
S21400450003F0FEFE00B1FEE79DF800300C4A12787C
S2140045109342F1D0032B06D164250949204603F0C7
S214004520DCFE28B1FEE7204603F00EFF0546F4E762
S2140045302946204603F0E6FE0028DDD0FEE700BF51
S2140045406408002008B5002103F07EFC002008BDAA
S21400455030B589B005460C460023019302930393B9
S214004560049305930693079364220192962302937D
S2140045700392049304F06CF8611E042929D8DFE83E
S21400458001F0030C11171D00284604F079F80446C4
S214004590CCB104BB204609B030BD284604F076F8FE
S2140045A00446F5E70021284604F076F80446EFE7CF
S2140045B00221284604F070F80446E9E7284604F08D
S2140045C059F80446E4E701A9284603F051FC0446DE
S2140045D0DFE70124DDE7284604F049F8DAE770B59E
S2140045E08CB004460D462C22002101A809F039FBA8
S2140045F001238DF808304FF42872ADF80A20022205
S2140046008DF80C208DF80D308DF80E208DF80F30BB
S21400461064220492B62105910692C02207920B22CC
S2140046208DF82C208DF82D3001A9204603F0A6FF2A
S214004630064650B9063D032D1DD8DFE805F0020DED
S2140046401217204603F0D0FF0646B6B1204603F008
S214004650E3FF30460CB070BD204603F0CBFF0646A5
S214004660F3E7204603F0D2FF0646EEE7204603F0C7
S214004670C7FF0646E9E70126E8E70821204603F0DB
S214004680E3FBE6E708B5052907D84BB263B911B9CD
S214004690FFF758FF00E0012008BD8B1FDBB2032B9D
S2140046A005D8FFF79CFFF7E7FFF752FFF4E7012076
S2140046B0F2E7000000B587B000230193029303934E
S2140046C00493059302238DF804300A4A02928DF86B
S2140046D00D3004228DF80E208DF8133005238DF84A
S2140046E014300DEB02014FF0FF3003F001FF07B06E
S2140046F05DF804FB006A180008B500214FF0FF3093
S21400470003F0F9FE08BD00002D2822D8DFE800F0EF
S214004710172121212121212121212121212121218E
S21400472021212121212121212121212121211B217A
S2140047302123212121211D212121211F2119074863
S214004740704707487047074870470748704707484C
S2140047507047074870470748704700BF28FE0000AC
S214004760C0FC0000D4FC0000FCFC000014FD0000AF
S21400477088FC000098FC000070470020704700206E
S2140047807047000010B504464FF42F72002109F060
S21400479068FA8023C4F88C30044B636001232372CC
S2140047A004F19C00FDF718FA10BD00BF34FD0000B0
S2140047B010B503460846D3F8A0202AB1D3F8A410B3
S2140047C090470024204610BD184600F0A7FD04467A
S2140047D00028F7D0FFF798FF0146024801F011F9CC
S2140047E0F0E700BFF0E8000001230372437A03B944
S2140047F0704710B5044600F039FF04F10901204661
S214004800FFF7D6FF204600F038FE10BDF8B5067854
S21400481016B100263046F8BD0546FFF7B0FF002863
S214004820F8D101232B702B7A0BB9374616E00023FC
S2140048302B726968194801F0E4F8F6E701F0C5F84C
S214004840044614E02846FFF797FFE1B2284600F03A
S21400485049FF0646B4F1FF3F0ED06EB9D5F8B44214
S214004860B4F1FF3FEAD04FF0FF33C5F8B432B4F1ED
S214004870FF3FE7D10127EDE71EB900232B703E4628
S214004880C8E72846FFF7B0FF2B7A002BF5D06968FB
S214004890024801F0B6F800232B72EEE740E900006C
S2140048A038B504460D46FFF76DFF6B68C4F8B032A6
S2140048B0A968204600F0F8FB4FF0FF33C4F8B43286
S2140048C02046FFF75AFF38BD08B5FFF79FFF08BD23
S2140048D01038072801D80120704700207047A0F143
S2140048E01003072B00D8D8B270470000F8B506466C
S2140048F00D4617460B78302B0DD04FF0000C15F8F0
S2140049000C30002B4AD0374C1B5D13F0040F66D0DA
S2140049100CF1010CF3E74B78782B04D0582B0CD015
S2140049204FF0000CEBE70222AB5C43B12D495B5C19
S21400493013F0440F51D00132F6E70222F4E7724238
S21400494006F0030302F0030258BF5342032B16D1AE
S214004950284609F05DFA0238013608D4B310B0EBE9
S214004960A60F06D09842ACBF0020012038E00336E0
S214004970F4E7A87837288CBF0020012030E02846CE
S21400498009F046FA831E3246002E05DBB3EBA20F73
S214004990D4BF0120002023E0F21CF7E70A22002102
S2140049A0284609F073FB02460C46202E11D02FB184
S2140049B051EA000302D0421E61F100040123B34015
S2140049C0013B1340002C08BF93420CBF012000207F
S2140049D006E0B1FA81F0400902E0002000E0002085
S2140049E0F8BD00BF1948010008B50B782D2B04D080
S2140049F000220138FFF77AFF08BD01221144013872
S214004A00FFF774FFF8E7000003787B2B1CD14FF00C
S214004A10000C0123C25C7D2A0ED00E49515C11F0B9
S214004A20440F03D00CF1010C0133F3E7202A01D028
S214004A30002070470133EDE71844437833B91CF083
S214004A40010F05D1012070470020704700207047F5
S214004A50002070471948010008B5072826D8DFE867
S214004A6000F0060B1015191D0421012008BD0022B8
S214004A700820FFF73BFFF9E700221020FFF736FF7C
S214004A80F4E700222020FFF731FFEFE70820FFF7CA
S214004A90ABFFEBE71020FFF7A7FFE7E72020FFF7C5
S214004AA0A3FFE3E70846FFF7AFFFDFE70020DDE7F9
S214004AB02DE9F04383B00C4617461D460A9EDDF8E6
S214004AC02C8021282BD8DFE800F0112D445A71885D
S214004AD09EA22A2A2A2A2A2A2A2A2A2A2A2A2A2A45
S214004AE02A2A2A2A2A2A2A2A2A2A2AD300221146A7
S214004AF0204609F047FBD8F80030C0B245F823003E
S214004B00D8F80030326805EB830347F82230D8F82F
S214004B1000300133C8F8003033680133336003B027
S214004B20BDE8F08300221146204609F02BFBD8F89A
S214004B30003080B245F82300D8F80030326805EB24
S214004B40830347F82230D8F800300133C8F8003025
S214004B50E2E700221146204609F014FBD8F80030A0
S214004B6045F82300D8F80030326805EB830347F891
S214004B702230D8F800300133C8F80030CCE70022E5
S214004B801146204609F0E2F940B2D8F8003045F860
S214004B902300D8F80030326805EB830347F822304C
S214004BA0D8F800300133C8F80030B5E700221146C7
S214004BB0204609F0CBF900B2D8F8003045F82300BB
S214004BC0D8F80030326805EB830347F82230D8F86F
S214004BD000300133C8F800309EE700221146204618
S214004BE009F0B4F9D8F8003045F82300D8F80020CA
S214004BF0336805EB820547F82350D8F800300133B8
S214004C00C8F8003088E7336847F8231084E74FF089
S214004C1000098DF80690C846012512E0013510E01F
S214004C208DF8053008F101081022002101A809F0CE
S214004C308DF909F10203E05409F101091FFA89F917
S214004C400135635D7D2B09D0202BE7D018F0010FCE
S214004C50E6D18DF8043008F10108F1E784F80090F9
S214004C604FEA192984F80190336847F8234053E740
S214004C70336847F823104FE72DE9F04F87B09B467F
S214004C800023059304938B4500F38A8080468A466A
S214004C9017461C461E46994602E04FF001090134AD
S214004CA018F80400FF280CD02028F6D0212805D0BC
S214004CB0FFF70EFE0028F2D00646F0E74FF0010997
S214004CC0EDE705465C44B9F1000F06D0013C5445BB
S214004CD068DC0024A146029443E03EB1013C544502
S214004CE062DC0024CDF80890A1463AE0A2455DD1EA
S214004CF000240296A14634E008EB09035B78FF2BFC
S214004D000ED02B2049E0039B43445B78FF2B4FD10A
S214004D100123029304E009F10109354600E0062567
S214004D20029B93B957F824102846FFF795FE0028F3
S214004D3042D004AB019305AB0093119B109A57F831
S214004D4024102846FFF7B4FE0AE004AB019305AB37
S214004D500093119B109A57F824102120FFF7A8FE05
S214004D600134544518DA5C45D9DBCDF80C9018F8B8
S214004D700960202EC0D0212EC5D03046FFF7A8FDF2
S214004D800028C8D0039B43445B78FF2B12D13046E3
S214004D90FFF7A5FD0546C3E7002007B0BDE8F08F86
S214004DA02120FAE72B20F8E72B20F6E72B20F4E764
S214004DB02B20F2E72B20F0E72620EEE7212816D856
S214004DC021283AD8DFE800F0113B191B1D1F2123CC
S214004DD039393939393939392527292B2D2F3133A6
S214004DE03939393939393939353718487047FE284D
S214004DF027D0FF2827D11648704716487047164810
S214004E007047164870471648704716487047164849
S214004E107047164870471648704716487047164839
S214004E207047164870471648704716487047164829
S214004E307047164870471648704716487047164819
S214004E407047164870471348704700BFE4FD0000DF
S214004E50F4FD000048FD000050FD000058FD000075
S214004E6060FD000068FD000070FD000074FD00009D
S214004E7080FD00008CFD000098FD0000A0FD0000F5
S214004E80ACFD0000B8FD0000C4FD0000CCFD000035
S214004E90D8FD000038FD000040FD0000ECFD0000DD
S214004EA008B5FCF7E3FE08BD2DE9F04784B081465F
S214004EB08A4690461D460C9F0D9E04460EE01868D6
S214004EC00F9B03930E9B0293019600972B46424638
S214004ED00121FFF7E9FF044618E00C342068A8B16A
S214004EE033682A68934211DA57F82310FFF7D8FF81
S214004EF00028F2D133680133336063681A7BFE2AD8
S214004F00DDD001230E9A137088F8003098F8003030
S214004F105BB90F9B1B7843B9BAF1000F09D0012388
S214004F200F9A137088F800304C46204604B0BDE84F
S214004F30F0870024F9E7000070B506460D4608F035
S214004F4067FF0446304600F05CFD03E0034800F0CF
S214004F5058FD0134AC42F9D370BD00BFF8FD000027
S214004F602DE9F84F044602213248FFF7E5FF1E21DF
S214004F702068FFF7E1FF6368586800F042FD2E489E
S214004F8000F03FFD63681A7BFD2A51D803F10C0937
S214004F90D3F808A0504608F03BFF80464FF0FF3499
S214004FA0002510E02B2000F020FD36E000F01DFD6F
S214004FB001341AF804001F2801D04445F6DB1E48C9
S214004FC000F01FFD0135AB4619F80560FF2E2FD007
S214004FD03046FFF7F3FE0746B8F1000F00DD013458
S214004FE0202EEFD0134E02213046FFF7A5FF1E21DC
S214004FF03046FFF7A1FF114800F003FD1049384680
S21400500008F0FCFE00B90F4F39460F4800F0F9FCD7
S214005010CB449BF80130202BC4D00C4800F0F1FCA8
S214005020B8F1000FCBDD1AF804301F2BC7D0C0E74D
S214005030BDE8F88F28FE0000BCEA000000FE000075
S214005040D8FD0000FCFD000040E9000004FE000062
S21400505038B50546002402E0FFF782FF013404EB72
S214005060440305EB830055F8233023B1037A002B65
S214005070F2D00134F3E738BD10B539B1084612B1A5
S214005080FFF76EFF10BDFFF7E3FFFBE7D0F89C408D
S21400509000E02468002CF5D0A0680028F9D0FFF7BF
S2140050A0D7FFF6E77047704759B10A790AB1002072
S2140050B0704710B501240C719C30FCF790FD20461B
S2140050C010BD0020704700002DE9F04F95B08146D6
S2140050D0059106921C4602931E9E00F10902154693
S2140050E00892104608F094FE079000232360336071
S2140050F00CAA0BA9284600F0ACFC002840F0BE80A5
S2140051000C9808F085FE2060D9F89C3003930023A5
S2140051101C4604939A46A0E000242BE0013429E0C4
S2140051200B9B013B53454FD00F68584608F070FE66
S214005130336803440133336001E00133336033687E
S21400514009EB0302527A002AF7D00AF1010A019C01
S21400515010E0049B013304934246DDF81880414674
S214005160059D2846FCF76FFD474A41462846FCF752
S2140051706AFD013404EB440307EB830557F823303C
S214005180002B33D00B9B534530DB2B7A002BC5D13D
S214005190D9F894203368D21A029B1A6014AB03EB3A
S2140051A08A0353F820BCD5F800804146584608F0DC
S2140051B037FE01900028DCD1404608F029FE8446E0
S2140051C069680A7BFE2AABD0D9F8943030681B1A7F
S2140051D0654663450DDC059808F01AFE05447B2DF0
S2140051E0B7D92A4A06990598FCF72DFD089B079A19
S2140051F028E0FE2ABDD10B9B013B5345B9D10D6873
S2140052000994019C049FDDF81480DDF818B004EBC7
S214005210440355F823205AB159464046FCF713FD7F
S214005220194A59464046FCF70EFD01370134EEE7B1
S214005230099C0497079B33600023029A1360D5E706
S2140052400133013A002A05DD19780029F8D120211A
S2140052501970F5E7039B1B680393039B83B1039BBD
S2140052609F68002FF6D009EB04035B7A202B7FF4AF
S21400527053AF3368013333600134F4E700230493FB
S214005280049815B0BDE8F08FF8FD000008FE000099
S2140052902DE9F04786B004460F4616461D46DDF853
S2140052A03890DDF83C8000238DF817302B6089F8A5
S2140052B0003088F800302B6852F823101648FFF7A5
S2140052C0EFFD40B92B6801332B604FF0010AD4F88C
S2140052D09C40002003E04FF0000AF8E7246894B1F1
S2140052E0A0680028FAD0CDF80C80CDF8089001957B
S2140052F000963B460DF117020021FFF7D5FD9DF8FD
S2140053001730002BEAD0BAF1000F02D0012388F83C
S214005310003006B0BDE8F08710FE0000F0B5A3B080
S214005320054608461AAA19A900F093FB044610B1D0
S214005330204623B0F0BD00238DF80B300DF10B0393
S21400534001930DF10A03009303AB1AAA19A9284684
S214005350FFF79EFF9DF80B3013BB40B3466806F17F
S2140053600C0711AB019309AB0093039B1AAA19997A
S2140053703846FFF781FC04460028D9D10495199BCE
S214005380059309AB0693039B0793089704A8FFF7BA
S21400539089FE336804A8984704A8FFF784FEC7E789
S2140053A09DF80A2001462846FFF766FEC0E72D2432
S2140053B0BEE700230B601360D0F8AC32B3B394465C
S2140053C090F8AC30A3B300B54FF0010E002313E005
S2140053D00133B3F5007F0DD20A6801320A60DCF8AB
S2140053E000200132CCF80020C21892F8AC200A2A1D
S2140053F0EED101330EF1010ED0F8AC227245E8D89A
S21400540005E0DCF800200132CCF800200133B3F5CB
S214005410007F08D2C21892F8AC200A2A0AD0002AC6
S214005420EFD1012000E001205DF804FB002070476A
S214005430002070470120F7E770B505460024264691
S21400544000E0013405F1AC0008F0E2FCA04207D908
S2140054502B1993F8AC301BB10A2BF2D10136F0E7CA
S214005460304670BD08B50844407A00F0BEFA08BD64
S21400547008B5082000F0B9FA08BD10B50446D0F803
S2140054808C200021093008F0ECFB0023C4F8903093
S214005490C4F8943010BD000070B5ADF5447D0446E8
S2140054A00021A4917C22A5A808F0DBFBA3AB009307
S2140054B0A2AB8022A4A92046FFF706FE012804D04E
S2140054C0012842DC0DF5447D70BDA4A808F0A0FCC0
S2140054D00546A299431AA39A0A4408322244013286
S2140054E0A4A8014404E011F8010B02F8010B013BEB
S2140054F0002BF8DC00231370D4F890600AE0D4F890
S21400550090102046FFF7AEFFD4F890300133C4F871
S21400551090300136A29AA39B1344B342EFDCAD1A37
S214005520D4F894302B44C4F89430D4F890302B44FC
S214005530C4F89030A4AB9C1804E014F8010B00F0FB
S21400554054FA013D002DF8DCBCE78022002102A8B9
S21400555008F087FB4FF40072002122A808F081FBB8
S2140055600125002300E0013303F544726A4412F873
S214005570802C3AB1202AF6D15A1C22A941F82520BF
S2140055800135F0E722AA42F82530A4A808F040FC2E
S214005590002115E0013222AB53F82230834209D0B5
S2140055A00B4403F544736B4413F8803C6345F1D019
S2140055B0002300E0012363B102AB03F801C0013110
S2140055C08D4209DB01F544736B4413F880CC00224E
S2140055D0E1E702AB00225A54D4F890500AE0D4F81F
S2140055E090102046FFF73EFFD4F890300133C4F801
S2140055F090300135A29BAB42F1DC04F10903194A55
S214005600A4A9194800F0FDF902A808F001FCA29A26
S214005610A39BD11808312144013102AB9D18821A90
S2140056200EE015F8013B01F8013BD4F89030013349
S214005630C4F89030D4F894300133C4F89430013A6A
S214005640002AEEDC00230B70A29C02AB1D19041B83
S21400565004E015F8010B00F0C8F9013C002CF8DC5A
S21400566030E700BF34FD000018FE0000F0B583B040
S21400567004460EE02046FFF7DFFEC4F8AC0201AA9F
S21400568069462046FFF795FE009B2344002283F8D8
S214005690AC2004F10906304608F0BAFB451C04F1BC
S2140056A0AC07384608F0B4FBC0F500739D42E1D85D
S2140056B0421C3946781908F0BAFA304608F0A8FBBA
S2140056C002463146384608F0A5FA304608F0A0FBF8
S2140056D020440A2380F8AC300023C4F8AC3203B070
S2140056E0F0BD00002DE9F84304460D46D0F8906062
S2140056F0D0F8947000F1090890F89830012B0AD081
S214005700012B0ED9022B00F0C680032B00F0D280AE
S2140057100020BDE8F8830A29F2D1002084F898001A
S214005720F7E71B2D29D00D2D2CD0002384F89830B8
S214005730082D2BD07F2D68D00D2D00F088800A2DE7
S21400574000F08580092D00F08F80D4F88C30013B66
S214005750BB4240F3E280BE42C0F28B8008F806509F
S2140057600136C4F89060D4F894300133C4F894300D
S214005770284600F03AF90020CBE7022384F8983058
S2140057800020C6E7012384F89830D1E7002E01DD1B
S214005790BE420CD0002E01DDBE4217DB002E00F00C
S2140057A0BA80C4F89060C4F894700020B1E708206E
S2140057B000F01BF9202000F018F9082000F015F979
S2140057C0013E002308F80630013FEAE706F1FF39FC
S2140057D0082000F00AF908EB0905A7EB090208EB18
S2140057E00601284608F023FA002308F80730294661
S2140057F04C4800F006F9013F3D4602E0FFF738FE50
S214005800013D4D45FADC4E46CBE7002F01DDBE429A
S21400581001DB00207DE708EB0605711CBA1B41443E
S214005820284608F004FA002308F8073029463E48C0
S21400583000F0E7F803E0082000F0D7F8013FB74291
S214005840F9DCD4F89430013BC4F89430E1E70D203D
S21400585000F0CBF80A2000F0C8F80023C4F8903017
S214005860C4F89430012054E72046FFF715FE0020C8
S2140058704FE7701C08EB0609BA1B4946404408F07F
S214005880D6F9484600F0BDF802E0FFF7F1FD013F0B
S214005890B742FADA62E75B2D04D1032384F8983026
S2140058A0002036E7002384F8983029462046FFF784
S2140058B019FF2EE7002384F89830413D032D2ED89B
S2140058C0DFE805F002080F1E0121204600F02EF842
